:020000040002F8
:10800000084B0020E1830200E9830200EB830200B9
:10801000ED830200EF830200F18302000000000004
:10802000000000000000000000000000CD830200FE
:10803000F583020000000000F7830200F9830200CC
:10804000FB830200FB830200FB830200FB83020030
:10805000FB83020000000000FB830200FB830200A0
:10806000FB830200FB830200FB830200FB83020010
:10807000FB830200FB830200FB830200FB83020000
:108080001197020069940200FB830200FB83020047
:10809000FB830200FB830200DD940200FB830200ED
:1080A000FB830200FB8302000000000000000000D0
:1080B000FB830200FB8302000000000000000000C0
:1080C00000000000000000000000000000000000B0
:1080D00000000000000000000000000000000000A0
:1080E0000000000000000000000000000000000090
:1080F0000000000000000000000000000000000080
:10810000000000000000000000000000000000006F
:10811000000000000000000000000000000000005F
:10812000000000000000000000000000000000004F
:10813000000000000000000000000000000000003F
:10814000000000000000000000000000000000002F
:10815000000000000000000000000000000000001F
:10816000000000000000000000000000000000000F
:1081700000000000000000000000000000000000FF
:1081800000000000000000000000000000000000EF
:1081900000000000000000000000000000000000DF
:1081A00000000000000000000000000000000000CF
:1081B00000000000000000000000000000000000BF
:1081C00000000000000000000000000000000000AF
:1081D000000000000000000000000000000000009F
:1081E000000000000000000000000000000000008F
:1081F000000000000000000000000000000000007F
:10820000DFF810D000F03EF90048004701A402005A
:10821000AFF30080084B002080F308888E4610479B
:1082200030B450E8012F93B2C48923448489A34217
:1082300028BF1B1B0489A34202BFBFF32F8F00205E
:1082400007E0C3EA020340E80134002CE9D14FF013
:1082500001000A6030BC704750E8012FC2EA0242B8
:1082600040E801210029F7D1704730B450E8022FCF
:108270001FFAA2F3C488A34202BFBFF32F8F0020CE
:108280000DE0C48923448489A34228BF1B1BC2EA92
:10829000034340E80234002CE8D14FF001000A60AB
:1082A00030BC704750E8022FC2EA224240E8022167
:1082B0000029F7D17047034653E8022FD988B2EB63
:1082C000324F4FF0000017BF92B241EA014142EA3B
:1082D000014104E05A68B2EB324F08BF012043E885
:1082E0000212002AE8D1704730B4044654E8000F67
:1082F0000D4644E80053002BF8D1156030BC7047A0
:1083000030B4044654E8000F40EA010544E8005345
:10831000002BF7D1156030BC704730B4044654E8E8
:10832000000F00EA010544E80053002BF7D1156067
:1083300030BC704730B4044654E8000F80EA0105B1
:1083400044E80053002BF7D1156030BC704730B4BF
:10835000044654E8000F00EB010544E80053002BED
:10836000F7D1156030BC704730B4044654E8000FB4
:10837000A0EB010544E80053002BF7D1156030BC99
:10838000704770B404464FF0000054E8006F0D6869
:10839000AE4207BF44E80023012044E800630E60BA
:1083A000002B1CBF0020F0E770BC704730B40446BF
:1083B00054E8000F88422CBF451A054644E8005394
:1083C000002BF5D1156030BC704700001EF0040F83
:1083D0000CBFEFF30880EFF3098003F0BBBA000095
:1083E0000648804706480047FEE7FEE7FEE7FEE74F
:1083F000FEE7FEE7FEE7FEE7FEE7FEE7E1940200A8
:1084000001820200202A04DB203A00FA02F1002057
:1084100070479140C2F1200320FA03F319439040C2
:10842000704740EA01039B0703D009E008C9121F07
:1084300008C0042AFAD203E011F8013B00F8013B1E
:10844000521EF9D27047D2B201E000F8012B491E4A
:10845000FBD270470022F6E710B513460A460446E1
:108460001946FFF7F0FF204610BD30B50446002046
:10847000034600E05B1C934203D2E05CCD5C401BF2
:10848000F8D030BD064C074D06E0E06840F001032F
:1084900094E8070098471034AC42F6D3FFF7B4FED7
:1084A000C0D50200E0D502002DE9F0438BB01446A0
:1084B000129D15F9046B00961F46804689462B468F
:1084C0000246214602A800F09DFC02A9129A084625
:1084D00000F094FC129B02AA4146404600F07EFC4C
:1084E000129B02AA2146204600F078FC2B464A4601
:1084F00039463846009600F085FC129A394602A8A3
:1085000000F07CFC02A92B4642460846009600F08B
:1085100079FC02A92B4622460846009600F072FC20
:108520002B46424621462046009600F06BFC129BEB
:1085300022464946484600F051FC2B4602AA4146D5
:108540002046009600F05EFC129B224639463846D3
:1085500000F044FC2B464A4639463846009600F067
:1085600051FC324602A9204600F012FE0BB0BDE8D5
:10857000F083F0B5154689B01C4607460E461A46EC
:108580002946684600F03AFC23466A463946384692
:1085900000F024FC23462A466946684600F01EFC8B
:1085A00023466A463146304600F018FC09B0F0BD5B
:1085B0008B1802448B4204D013F8010D02F8010D10
:1085C000F8E770472DE9F047B3F9025089460824CF
:1085D000E91D1F3591FBF4F42021944295FBF1F540
:1085E0004FFA85F828BF14461F464146064600F05C
:1085F0007DFA22464946FFF7DBFFB7F90230E40077
:108600009C4220D9E41A06EB85010023C4F1200026
:108610008E4208D251F8042D22FA04F52B430B6048
:1086200002FA00F3F4E7243742463146384600F0B8
:1086300069FA012807D043463A4631463046BDE83C
:10864000F04700F0B5BDBDE8F0872DE9F04793F99C
:10865000006092B004468946104631461546984659
:1086600000F064FA002840F098804246494602A88B
:1086700000F0C4FB434602AA21460AA800F0AEFB64
:1086800002A90846424600F0B9FB43462A4649463D
:10869000484600F0A3FB08F1040742462946284655
:1086A00000F0ACFB3B462A4621462046009600F0EF
:1086B0004CFA3B462A4629462846009600F045FAE1
:1086C0003B462A4621462846009600F09BFB43463F
:1086D0002A462146204600F081FB3B4622462146A1
:1086E0002846009600F031FA3B4600962A4621467D
:1086F000204600F02AFA2368DB0714D533463A46B1
:108700002146204600F0C4F931468246204600F05A
:1087100032FD06F18043013B54F8230040EACA7061
:1087200044F8230003E03146204600F024FD424691
:108730002146284600F062FB3B460AAA2946284605
:10874000009600F05FFB3B460AAA294628460096A1
:1087500000F058FB0AA908463B462A46009600F05E
:1087600051FB43460AAA2146204600F037FB02AAE5
:108770003B4610462146009600F044FB324629460F
:10878000204600F005FD32464946284600F000FD2F
:10879000324602A9484600F0FBFC12B0BDE8F08763
:1087A0000048704710D502002DE9F04FEDB01F468C
:1087B000DDF8D8810590B8F9026098F900402023CF
:1087C0001F3696FBF3F676B206F1FF3924AB00258F
:1087D00043F829506CAB03EB89034CA88A469346B7
:1087E000394698F9012043F8805C43F8605CFFF754
:1087F000DFFE98F9012054A8B918FFF7D9FE2146E9
:108800004CA800F093F90746002840F03781214634
:1088100054A800F08BF90390002840F0318108F152
:10882000240332464CA91846029300F06BF9012844
:1088300040F02881324654A9029800F063F90128DB
:10884000069040F01F811CAD0CAF3346029A54A92C
:10885000284600F093F9039B47F829305A465146C1
:1088600038464346FFF7AEFE39463846029B00962F
:108870002A4600F00BFA0DF5B879029B00962A46BD
:108880004CA914A800F002FA48462246059900F0C7
:108890007FFCA30009EB030A0793059BA10059186D
:1088A00008F1440B5046224600F072FC594622461D
:1088B00034A800F06DFCA3000BEB030122463CA89A
:1088C00000F066FC08F10403494634AA28460094E7
:1088D000049300F097FA53464A463CA934A8CDF8D1
:1088E0000080FFF7E1FD2346049A2946284600F060
:1088F00045F92A46514648464346FFF73AFE039B50
:1089000008933146059B0A933846CDF824B0CDF83C
:108910002C9000F012FC3146814614A800F00DFCAA
:108920004845B8BF48461FFA80F909F1FF3B0FFAE6
:108930008BFB5946384600F06BFC5946071C14A8BF
:1089400018BF012700F064FC002814BF0223002395
:108950001F430DF1200A22465AF8277024A83946F1
:1089600000F016FC0DF1B00BA300F9182246584692
:1089700000F00EFC2146284600F0B8F8A9F10209E3
:10898000069B2B600FFA89F90DF1900AB9F1000FDF
:1089900045DB43462A46D8F8A47059465046B847A6
:1089A00049460CA800F034FC4946071C14A818BF1F
:1089B000012700F02DFC002814BF022300231F43D1
:1089C00008AB53F827702FB32246394634A800F07D
:1089D000DFFB079B2246F9183CA800F0D9FB434671
:1089E0002A463CA934A8FFF7C4FD049B009434AA8E
:1089F000514644A800F006FA5B4652463CA934A80A
:108A0000CDF80080FFF750FD434644AA294628468A
:108A100000F0E4F909F1FF390FFA89F9B6E72346C6
:108A2000049A2946284600F0A9F843462A465946A2
:108A30005046FFF79EFD32465146029800F062F81C
:108A4000012805D03346029A5146504600F0B0FB4B
:108A5000013C64B20020002C0CDB23B26CAA02EBB8
:108A600083015AF8232051F8803C013C53401843BD
:108A700064B2F0E7B0FA80F0400904E0284602E072
:108A8000384600E003986DB0BDE8F08F00000000AC
:108A9000C3F10803DB0070B50133002403A500BF58
:108AA0005B1920C940CAAD1920C0184720C940CA67
:108AB000754120C020C940CA754120C020C940CAA4
:108AC000754120C020C940CA754120C020C940CA94
:108AD000754120C020C940CA754120C020C940CA84
:108AE000754120C06441204670BD00BF002210B512
:108AF000144653B28B4204DA1BB2013240F82340D1
:108B0000F7E710BD10B5013A52B2002A0ADB13B2E2
:108B100050F8234051F823309C4205D8F3D24FF04F
:108B2000FF3010BD002010BD012010BD10B5002386
:108B30001A465CB28C4204DA50F8244001332243D6
:108B4000F7E7B2FA82F0400910BD70B59DF9104008
:108B50001E4623460546FFF79BFF30B922462946AD
:108B60003046FFF7CFFF012807D02346324629467B
:108B70002846BDE8704000F01BBB70BDF0B50F4645
:108B8000A1B006461946384615461C46FFF7CEFFEB
:108B900020B121463046FFF7A9FF74E0224639464E
:108BA000684600F0F5FA2246294608A800F0F0FAD7
:108BB000214610A8FFF79AFF0123214618A8109319
:108BC000FFF794FF224608A96846FFF79BFF00289D
:108BD00054D0009BDA0704D42146684600F0CBFA53
:108BE00026E0089BDB0704D4214608A800F0C3FA5E
:108BF0003EE0002823461FDD08AA6946684600F0CB
:108C0000D7FA2146684600F0B6FA224618A910A8FD
:108C1000FFF778FF002805DA10A923462A46084600
:108C2000FFF736FF10A9234618AA084600F0C0FA3D
:108C30002246294610A81EE008A96A46084600F008
:108C4000B7FA214608A800F096FA224610A918A8FB
:108C5000FFF758FF002805DA18A923462A460846D8
:108C6000FFF716FF18A9234610AA084600F0A0FA3D
:108C70002246294618A800F0ADFBA3E7224610A91A
:108C8000304600F085FA21B0F0BD00002DE9F04F2C
:108C9000B5B004AD9DF9F8401F46804623462846EE
:108CA00000F0C2F824AB214638460293039500F049
:108CB00044FA494BC0EB841005B22B40002BBEBFD9
:108CC00003F1FF3363F01F030133202695FBF6F613
:108CD00076B20FFA83F914A83146FFF707FFB9F10E
:108CE000000F30B214DD14AB002203EB8000C9F199
:108CF00020061346A34212D257F8231001FA09FEA8
:108D00004EEA020240F8232021FA06F20133F1E78D
:108D100014AB2246394603EB800000F039FA27B243
:108D20007B00019314AB03EB870704F1FF3934ABED
:108D3000012603EB8909002D42DB34AB0022C6F18A
:108D40000100964603EB860A03EB8000019B51B2BB
:108D500099421BDA0FFA81FC5AF8C83C53F82CB040
:108D600034AB03EB810151F8803CC3EB0B03CEEB3A
:108D700003039B4504D034BF4FF0010E4FF0000EAB
:108D800050F8C81C013241F82C30DFE7CEEB060367
:108D90005E42214614A85E4100F0EDF934AB03EBCE
:108DA0008403214653F8802C59F8803C384643EA26
:108DB000C273013D49F8803C2DB200F0DCF9BAE7FE
:108DC00034AB03EB8606224656F8C81C404600F03A
:108DD000DFF935B0BDE8F08F1F00008030B51C46CC
:108DE00091B0054693F90030684600F01DF8D4F8BC
:108DF000AC3069462846984711B030BD13460A4644
:108E0000FFF7ECBF70B59DF910401E46234605469E
:108E100000F0CEF938B12346324629462846BDE84F
:108E20007040FFF735BE70BD2DE9F04F08B4F8CAA9
:108E300004B451F8042BA3FB028940F8048B4FF0D3
:108E4000000AE4FB629A4FF0000BE5FB62AB4FF0C7
:108E5000000CE6FB62BC4FF0000EE7FB62CE51F85F
:108E6000042B4FF00008E3FB628940F8048BE4FB1D
:108E7000629AE5FB62ABE6FB62BCE7FB62CE51F8AF
:108E8000042B4FF00008E3FB628940F8048BE4FBFD
:108E9000629AE5FB62ABE6FB62BCE7FB62CE51F88F
:108EA000042B4FF00008E3FB628940F8048BE4FBDD
:108EB000629AE5FB62ABE6FB62BCE7FB62CE51F86F
:108EC000042B4FF00008E3FB628940F8048BE4FBBD
:108ED000629AE5FB62ABE6FB62BCE7FB62CE40F860
:108EE000049B40F804AB40F804BB40F804CB40F8C6
:108EF00004EB0CBC052B00F01E810C68A0F11400E3
:108F0000A1F11401A2F1140252F804EB4FF0000594
:108F100050F8046BE4FB6E5652F804EB50F8047BF7
:108F2000E4FB6E6752F804EB50F8048BE4FB6E78B8
:108F300052F804EB50F8049BE4FB6E8952F804EB02
:108F400050F804ABE4FB6E9AA0F1140052F8044B05
:108F500051F804EB4FF0000CE4FB6EC540F804CB75
:108F600051F804EBE4FB6E5640F8045B51F804EB57
:108F7000E4FB6E6740F8046B51F804EBE4FB6E7899
:108F800040F8047B51F804EBE4FB6E8940F8048B55
:108F900051F804EBE4FB6E9AA0E80006062B00F003
:108FA000CA800C68A0F11800A1F11801A2F1180202
:108FB00052F804EB4FF0000550F8046BE4FB6E56DA
:108FC00052F804EB50F8047BE4FB6E6752F804EBB4
:108FD00050F8048BE4FB6E7852F804EB50F8049BD5
:108FE000E4FB6E8952F804EB50F804ABE4FB6E9A94
:108FF00052F804EB50F804BBE4FB6EABA0F1180090
:1090000052F8044B51F804EB4FF0000CE4FB6EC532
:1090100040F804CB51F804EBE4FB6E5640F8045BD7
:1090200051F804EBE4FB6E6740F8046B51F804EB75
:10903000E4FB6E7840F8047B51F804EBE4FB6E89A6
:1090400040F8048B51F804EBE4FB6E9A40F8049B63
:1090500051F804EBE4FB6EABA0E8000C072B6AD0E0
:1090600008B40C68A0F11C00A1F11C01A2F11C02C3
:1090700052F804EB4FF0000550F8046BE4FB6E5619
:1090800052F804EB50F8047BE4FB6E6752F804EBF3
:1090900050F8048BE4FB6E7852F804EB50F8049B14
:1090A000E4FB6E8952F804EB50F804ABE4FB6E9AD3
:1090B00052F804EB50F804BBE4FB6EAB52F804EB3F
:1090C00050F804CBE4FB6EBCA0F11C0052F8044B3A
:1090D00051F804EB4FF00003E4FB6E3540F8043B1D
:1090E00051F804EBE4FB6E5640F8045B51F804EBD6
:1090F000E4FB6E6740F8046B51F804EBE4FB6E7818
:1091000040F8047B51F804EBE4FB6E8940F8048BD3
:1091100051F804EBE4FB6E9A40F8049B51F804EB21
:10912000E4FB6EAB40F804AB51F804EBE4FB6EBC1F
:10913000A0E8001808BCBDE8F08F013949B2002949
:1091400009DA013149B2A1B101F18043013B50F884
:109150002330002004E050F82130002BEDD0F0E760
:1091600013B15B080130FBE7013900EB411108B294
:1091700070470846704700EB81010023884206D201
:1091800051F8042D43EA52030B60D307F6E770470A
:1091900030B5002463B2934206DA1BB2013451F8B1
:1091A000235040F82350F5E730BD000000000000D8
:1091B000C3F10803DB0070B50133002403A500BF31
:1091C0005B1920C940CAAD1B20C0184720C940CA3E
:1091D000B54120C020C940CAB54120C020C940CAFD
:1091E000B54120C020C940CAB54120C020C940CAED
:1091F000B54120C020C940CAB54120C020C940CADD
:10920000B54120C06441B4FA84F0400970BD00BF8C
:109210004A11012350F8220001F01F0103FA01F165
:1092200008407047F0B5082289B00C460646FFF7A3
:10923000AFFFCB6A03930B6B04934B6B05938B6B64
:109240000693CB6B0793002708236A466946684656
:10925000029701970097FFF71BFC082305466A4613
:1092600031463046FFF714FC236B0393636B049382
:10927000A36B0593E36B0693054408236A4669468E
:1092800068460797FFF704FC082305446A46314601
:109290003046FFF7FDFB236A0093636A0193A36ADC
:1092A0000293A36B0693E36B0793054408236A4676
:1092B00031463046059704970397FFF7E9FB636A49
:1092C0000093A36A0193E36AA26B0293636B039317
:1092D00004920693E26B236A0592054407936A465B
:1092E000082331463046FFF7D3FBE36A0093236B34
:1092F0000193636B0293236A0693A36A0793054461
:1093000008236A4631463046059704970397FFF7CE
:109310004FFF236B0093636B0193A36B0293E36B8B
:109320000393636A0693E36A07932D1A08236A4638
:109330003146304605970497FFF73AFF636B009379
:10934000A36B0193E36B0293236A0393636A049311
:10935000A36A0593236B07932D1A08236A463146A7
:1093600030460697FFF724FFA36B0093E36B01934E
:10937000636A0393A36A0493E36A0593636B079399
:109380002D1A08236A463146304602970697FFF7A2
:109390000FFF2D1A16D508230D4A31463046FFF728
:1093A00077FB2D18F7D410E0082231460848FFF764
:1093B000A9FB012809D00823054A31463046FFF7AA
:1093C000F7FE2D1A002DEFD0F5E709B0F0BD00BF74
:1093D00014D5020070B5036813F001050646144663
:1093E00005D013460A460146FFF752FB05462146C3
:1093F0003046FFF7C0FE45B104F18042013A56F80D
:10940000223043F0004346F8223070BD2DE9F04190
:1094100015468AB0044688462022002102A8FFF79C
:109420001BF82E1D95F9007003232A46414620465D
:109430000293FFF7E3FC334602AA21462046009739
:10944000FFF7E0FC2B46424621462046FFF7C6FCCC
:109450000097334605F1840221462046FFF775FB4D
:109460000AB0BDE8F08100002DE9F041194E4FF43B
:109470008271D6F8040130B11748C268521CC2602C
:10948000304602F003F900254FF4A07707EB850181
:109490008AB23046B258BAB189B202F0F7F80E4833
:1094A000103000EB0514204603F0F8FC616819B198
:1094B000204603F077FC07E0A16811B1204603F0D5
:1094C00071FC206800B180476D1C022DDED3BDE821
:1094D000F0810000001001409823002002F0CEB976
:1094E000F0B57C487B4B012600781B1D1A1D310707
:1094F00006280BD11C78240708D11478C4F3031470
:10950000032C06D0042C04D0052C02D0062807D04A
:1095100011E0B1F82443704DC4F304242C6002E040
:109520001C78240707D11478C4F30314032C02D148
:109530006B4D6A4C6C67D1F83051D1F84442694F99
:10954000C4F342343C6006280CD11C78240709D1AE
:109550001478C4F30314032C04D1634C276827F058
:10956000807727604FF080470024C7F80C41C7F888
:1095700010415C4F3F1F3C60062807D11F783F0712
:1095800004D11778C7F30317032F02D0062808D099
:109590001DE0DFF850C103270CF1640CCCF800701B
:1095A00007E01F783F0712D11778C7F30317032F7F
:1095B0000DD1DFF838C10527CCF800704B4F783754
:1095C0003E604A4E083634603F24361F3460484CB3
:1095D0002468484E3460464C241D2468361D34608F
:1095E000434C08342468361D3460414C0C342468E4
:1095F000361D34603E4C10342468361D34603C4CBB
:1096000014342468361D3460394C18342468394EBB
:1096100020363460364C1C342468361D3460344C9B
:1096200020342468361D3460314C24342468361DBF
:1096300034602F4C28342468361D34602C4C2C3474
:109640002468361D34602A4C30342468294E403654
:109650003460274C34342468361D3460244C38344C
:109660002468361D3460224C3C342468361D346036
:109670001F4C40342468361D34601F4EFB24346078
:10968000062811D11C7824070ED11478C4F30314D2
:10969000032C03D0042C01D0052C05D1D1F858425D
:1096A000164E04F04F04346015480268D20702D009
:1096B0006FF001020260062D08D1D1F834010628AE
:1096C00004D11048016841F4806101600F490E48DF
:1096D0000860F0BDE00F00F0403501400DF0ADBA7C
:1096E00000C007403C050040FCED00E01056004083
:1096F0000404001020C5004018F50040E40E0040AE
:10970000000400403C1700400090D00330240020AB
:10971000034808B5002101600068009008BD000002
:109720000001014002E008C8121F08C1002AFAD156
:1097300070477047002001E001C1121F002AFBD1D1
:10974000704700000121202803DA814005480140CC
:1097500003E0402802DA2038814009B10120704737
:1097600000207047FC06FFBD800701D00020704735
:1097700001207047C3688B4206D811440069491E16
:10978000814201D8012070470020704730B585B074
:109790000D46164C1621ADF800101ECC0DF1040C30
:1097A0008CE81E00124C0221012221706270A07010
:1097B0000320E070217159206071FE20A07169467C
:1097C00004F109007DDF00280ED1BDF800002A4613
:1097D000411CE17109212172BDF808100844ADF85F
:1097E000080001A9034872DF05B030BDC4D10200F2
:1097F00068280020D023002010B586B00624182247
:1098000008496846FEF70DFE69462046FFF7BEFF91
:10981000002805D1044C207874DF0121207873DF03
:1098200006B010BDD4D10200D023002070B5104C7A
:10983000A66C656A01F062F9216B08446A1A31442A
:10984000814200D10022082300F046FD06000DD120
:1098500001F054F90022294600F034FBA16A81424C
:1098600003D10121A561C4E90701304670BD0000A4
:10987000703C002002F0A8F902F0A6F92DE9F84F9B
:10988000254C8146924660880E46814241D8002789
:109890004FF6FF788DF80070684600F075F8227872
:1098A0006078A188884201DA401C00E00020C0B244
:1098B000904204D19DF8000000F08AF827E0657816
:1098C0006078884201DA401C00E0002060709DF85A
:1098D000000000F07DF8454519D0A068B9F1000FEF
:1098E00040F835A00DD066B16188E068324605FBCE
:1098F00001004946FEF795FDA06800EBC500868093
:1099000002E000EBC50087800020BDE8F88F04204E
:10991000FBE70920F9E700001024002010B50E4CE9
:1099200003E0401C00E00020207020786178814234
:1099300010D022786188E068A36802FB010003EB85
:10994000C20153F83220898890472078A188884244
:10995000E9DAE6E710BD00001024002030B5CB00A6
:1099600008339DB293074FF0000401D0072030BDAB
:10997000044B9A602A44DA605C701C7058809980AD
:10998000002030BD1024002030B5EFF3108172B6F6
:109990000D4A9468012324B10370002900D162B6F6
:1099A00030BD93604FF0E023D3F88051074C254041
:1099B0001560C3F88041D3F8844154605A17C3F846
:1099C000842100220270E8E7F8400020FC06FFBD79
:1099D0000B498A68002A11D000280FD1EFF31080BC
:1099E00072B60B684FF0E022C2F800314B68C2F843
:1099F000043100228A60002800D162B6704700005E
:109A0000F840002070B510480146456AC06A8C6C69
:109A1000AC2801D024B106E0486B04442D1A02E0C2
:109A200001F080F804462A4621460848FEF71DFD4D
:109A3000002807D000F0CAFE29462046BDE8704045
:109A400001F0A0B970BD0000703C00200080020051
:109A500030B504462C4995B04FF6FF704880012080
:109A60008DF812004FF65960ADF81000224604A997
:109A70000120A8DF002844D1244B0FCB8DE80F0034
:109A8000A11C684662DF00283BD120491C226039B6
:109A90000BA8FEF7C6FC1E4D142205F1C401A868F0
:109AA0001290A0788DF84A002868139006A8FEF757
:109AB000B8FC12A8069013A807902088231D06AAB8
:109AC0000BA9AADF00281CD11C2205F1D8010BA884
:109AD000FEF7A7FCE8681290A0788DF84A00686845
:109AE0001390142205F1F40106A8FEF79AFC12A8BF
:109AF000069013A80790208804F10C0306AA0BA96E
:109B0000AADF15B030BD0000D02300209CD2020097
:109B100094D10200F0B585B0044614216846FEF7E2
:109B200099FC2078032308280BD12748C188491EB7
:109B300089B2C1808288002A3ED000293CD1C280EF
:109B400023702178607860228DF800208DF8011054
:109B50008DF802006078032101280AD00B2828D153
:109B600000F06AFB8DF80300002000F06DFB04217B
:109B70001FE0207809281CD2DFE800F01B1B1B2007
:109B80001B1B051B2000D4E902706D46E91C6668AA
:109B900003F08EF9044629193046C91C03F088F9F0
:109BA000044429193846C91C03F082F92044C01C1A
:109BB000C1B2684602F0D0FD05B0F0BDD4E9011293
:109BC000684602F0B9FDF2E7D02300202DE9F0410C
:109BD0001349034600208A68D4071ED0114CA342C3
:109BE0001BD04888A0F57F43FF3B10D042F0040211
:109BF0008A60132176DF00280FD10B4EC8254FF461
:109C00007A47741C3846A0476D1EFAD101E00878E7
:109C100074DFBDE8F04101F0CDBDBDE8F08100008A
:109C2000D0230020E0D50200A4D1020038B5214C99
:109C30000021227AD20701D0084638BDE0601E48D4
:109C400000F08EFC0020009001F0A8F888B91B48B5
:109C500013DF70B901F0D8FD58B9684601F01CFD5A
:109C600038B96946012001F021FD10B9684601F0BC
:109C700067FD0028E1D101F0A1F930B1104801F0F1
:109C800091F9A06840F00200A06000F0EFFA00280F
:109C9000D3D10B481C30FFF7DBFE0028CDD1FFF7F6
:109CA000ABFD0028C9D1A06840F00100A0600020F1
:109CB00038BD0000D0230020E8D50200008002005B
:109CC0008828002070B50446001D2188674D86B0A5
:109CD00021297CD022DC122954D018DC012977D02C
:109CE000102946D011294DD14FF6FF706880287A8F
:109CF000400704D4FFF780FD08B1FFF7BDFDE96818
:109D000000293FD006B00220BDE870400847132963
:109D10007DD0142975D01A2934D1A0E0522971D0F0
:109D200016DC22292ED050292ED051292AD1A079F3
:109D3000002827D021464E4801F0B0FF002821D04E
:109D400006B004F10801BDE87040494801F050BE7A
:109D5000552941D0562915D1A079002812D11321B7
:109D6000688876DF00280DD006B0BDE87040FFF7A8
:109D700083BD00886880E96809B1012088473D49B2
:109D8000688875DF06B070BD394D34F8060FA988B4
:109D90008842F7D1384800F0A9FB0600F2D062896A
:109DA00004F10C01FEF73DFB324918227A31684676
:109DB000FEF737FB049601956089ADF814006846FC
:109DC00001F020F80028DDD031462B4801E036E0D4
:109DD0003BE000F0ADFBD5E7E188F72913D2880717
:109DE000B0F1404F10D0C91F89B2481EC21700EB16
:109DF000927222F00302801A081A801D81B203E0D9
:109E000005E026E02BE0F7216888B5DFAAE71948CE
:109E10006A46163842F60521806A009002A8019031
:109E20006888ADDF08B1FFF727FD00231A468521BA
:109E300068887FDF0028A5D0FFF71EFDA2E700217C
:109E40000091008869468FDFF4E70021688866DFAB
:109E500088E700210A4600880B4686DF82E7002358
:109E600000881A461946B1DF7CE70000D0230020A5
:109E7000A4280020AAD10200E8D50200007800F052
:109E800001007047024900200870024801F0C2B882
:109E90009023002015C7020010B543689C18446049
:109EA00021B905E013F8010B01F8010B521EF9D29C
:109EB000012010BD0249CA6B4260096C8160704785
:109EC000703C0020F0B54FF0FF3622B11268D2434B
:109ED00000230A4D0DE03246FAE7C45C62400824D4
:109EE000D70700D037462F4087EA5202641EF7D1C9
:109EF0005B1C8B42F1D3D043F0BD00002083B8ED52
:109F000010B504460068401C07D0204602F0E6FC6D
:109F10002168814201D1012010BD002010BDF0B5A3
:109F2000146906468DB020681546271DE0B1022948
:109F300020D00A2000906B4609AA304602F0B8FBF8
:109F400000280FD009A901A8009A02F041FA01AE39
:109F500096E80F0005AE86E80F00236869683A4668
:109F600005A898470DB0F0BD0DB03046BDE8F040F3
:109F700002F0A2BA6946304602F034FA0028F1D065
:109F8000236869683A46684698470028EAD00298EC
:109F90000028F5D1019870600120E3E753685B78F1
:109FA00013F0C00303D0402B03D00020704700F013
:109FB00003B8FFF7B4BF00002DE9FF410B4651681D
:109FC000064614464878334D00F00F0210F030007A
:109FD00055F8225006D0102806D0202808D0302866
:109FE00056D13EE022694DE061690120087047E0EA
:109FF000022B28D1042A26D84FF0010869463046A2
:10A00000676902F0EFF900281AD009E00B7922699C
:10A0100013FB00226846A84770B13878401C38709E
:10A02000029820B1616838784A799042EED301985D
:10A030007060029860BB02E04FF00008F7E740460E
:10A0400004B0BDE8F081D4E904300F79027817FB41
:10A05000023349798A421BD2521C02701A46616847
:10A0600010E008786169072A087009D160680179F1
:10A070002069FEF7EFF960682169806802F0CDF988
:10A080002269616804B03046AC46BDE8F0416047E3
:10A090000020D5E7ECD402004169002901D0C06856
:10A0A000084770477047000010B50446032806D0E3
:10A0B000042C04D0062C08D0072C08D105E0084950
:10A0C0004FF4701000F0B2FA01E0FFF7DBFE054834
:10A0D0004168002903D02046BDE81040084710BD64
:10A0E00069A302009023002010B50446062802D17F
:10A0F000002001F003F804480168002903D020463D
:10A10000BDE81040084710BDCC2300202DE9FC41DC
:10A1100080461F4615460E4600240D4800F0D8F92B
:10A1200038B11120BDE8FC8106EB043001F074FA6F
:10A13000641CAC42F8D1064800F0C7F9CDE90057DD
:10A14000334600220221404600F02AF80020E9E7C9
:10A15000202400202DE9F843104D0F4680461E466E
:10A1600091466946286800F084F9040014D01C2147
:10A17000FEF770F901202071C4F81490380BC4F870
:10A180000080C4E902606946286800F093F902F093
:10A190006FFA0020BDE8F8830420FBE718D3020023
:10A1A0002DE9F04387B00446DDE90E8980681D463D
:10A1B00016460F4600280BD018216846FEF74AF9CC
:10A1C00002A88DF8007080E86003A168684688479F
:10A1D00007B0BDE8F08330B50446006887B00D468F
:10A1E000806800281FD018216846FEF733F90195D2
:10A1F000A0680590207910B1012810D107E0012056
:10A200008DF8000020690290E068039005E00220CC
:10A210008DF80000E06800030290606904902068F7
:10A2200081686846884707B030BD0B2803D30B38D8
:10A23000C0B200F009B870470249002208780A70DD
:10A2400070470000E8230020014908700B20704788
:10A25000E823002001490120087070479023002066
:10A260000149012008707047C82300200EB59DF8F1
:10A27000080020F00F00401C20F0F00010308DF896
:10A28000080068466DDF002819D19DF80100401CC8
:10A290008DF8010068466CDF002810D10848007A6C
:10A2A000800703D50748011D806901E006A1082049
:10A2B00082B202A87CDF002801D106487ADF0EBDF9
:10A2C000D0230020882800204F4C4C59322D465571
:10A2D00000000000AAD102002DE9F04781461D468A
:10A2E00016468846494502D10020BDE8F087A8EB14
:10A2F0000900040B06F6FF704FF0000A070B00F090
:10A3000079FAA5422AD22C4628E0A74202D8BA46BA
:10A31000354601E0A246250300225146484600F09A
:10A32000F7FC0028E1D1681E00F003002A1A002380
:10A3300041464846D21C00F001FD0028D5D109480D
:10A34000A7EB0A07761B016BA94429440163A844C3
:10A35000002000F0BFFE5FEA000AC6D1002ED4D173
:10A360005046C2E7703C0020FFF78CBD01494160B8
:10A3700000207047ECD2020010B50B4941600B4839
:10A3800000F0A6F868B901F08BFA08491C234FF4D5
:10A39000EE7208740448A1F5EE71001F006800F029
:10A3A00055F8002010BD00001CD30200F042002030
:10A3B00002480068002800D00120704720240020B7
:10A3C0000248007A002800D001207047F0420020A7
:10A3D00070B5054608680C464A68866828463146C6
:10A3E00001F03CFF6068286104F10C00686170783E
:10A3F0000221B1EB901F01D1241D2C6170BD000022
:10A4000010B500224FF48051104600F023F950B9E6
:10A4100008480022C0F5383100F01CF918B9064888
:10A4200000F07AF908B101F0CFFB00F0B1F800209C
:10A4300010BD000000800200A5A0020010B5FDF7CD
:10A440003AFF08B1002010BD112010BD10B531B188
:10A45000B2FBF3F403FB14241CB1092010BD0E2041
:10A4600010BD01600021416081608281C381084686
:10A4700010BD70B50C460546FDF7D2FE002802D08F
:10A4800021882868084470BD10B50A8849888A4226
:10A4900003D1FDF707FF012010BD002010BD70B5EE
:10A4A0000C460546FDF7E1FE002802D061882868C9
:10A4B000084470BD10B50A8849888A4203D1FDF767
:10A4C000CBFE012010BD002010BD002100F003B81C
:10A4D000012100F006B808B56A46FDF71EFF009896
:10A4E00008BD08B56A46FDF70BFF08BD38B5044640
:10A4F00000258DF800506846FFF746FA216862682B
:10A50000086890420ED9401E08600178238AE268EC
:10A5100001FB0325227A2168101AC0B20A7982420F
:10A5200000D208719DF80000FFF752FA284638BDA6
:10A5300038B5054600208DF800000C466846FFF748
:10A5400023FAE868298A201AB0FBF1F12A6810681A
:10A55000431C136001709DF80000FFF739FA38BD05
:10A5600010B530B1017A42680368891AC9B21A601D
:10A5700006E00E2010BD03681A68541C1C601170A0
:10A58000491EC9B2F7D2006800210171084610BD0A
:10A5900010B54FF0E0224FF0FF314FF48054C2F875
:10A5A0008011C2F8801200F005FC2046BDE8104082
:10A5B000AFF3008070B505461A4888B0C0F53C314D
:10A5C000002200F047F8EFF30580D5E90045C0050B
:10A5D000C00D4FF0FF364FF0000181F3148881F376
:10A5E000108881F3118881F3138812D020220E493C
:10A5F0006846FDF716FF203C202269462046069556
:10A60000FDF70FFFB21F31462046FDF705FE08B0EB
:10A6100070BD08B02A4631462046BDE87040FDF7BF
:10A62000FBBD00000080020030D0020070B5084D74
:10A6300004460E46686802F031FC002C06D0324613
:10A6400021466868BDE8704002F01ABC70BD000089
:10A6500098230020F0B50A0502D1B0F53C3F01D99E
:10A660000720F0BD000B491E0C4D012400EB1133F7
:10A670002E1D0EE04209C2F1000100EB411704FA61
:10A6800007F102D0012A03D101E0296000E0316026
:10A69000401C9842EED90020F0BD000000060040AA
:10A6A00070B51A4D0024E86A2435012807D0A52882
:10A6B00008D0AA2809D0AC280AD0002070BDFFF726
:10A6C000B5F80BE002F066F807E0FFF79BF905E04C
:10A6D00002F060F808B9FFF795F90124284600F068
:10A6E00031FA0B49002008700A4800F0F3FC10B161
:10A6F0000325284670BD0125002CFAD0012000F06A
:10A70000F3F90028F5D00225F3E70000703C0020A3
:10A71000C823002061A2020070B5264E70600020A0
:10A7200000F07EFC60BBFFF7BBFF234C20B101288B
:10A7300024D0022834D109E020684FF4701510F0BD
:10A74000B10F05D100F014FCD0B92BE04FF4A025D7
:10A7500000F050F8194A20211820FFF7FFF808B13F
:10A76000FFF78AF8206810F0B10F03D0206800F0DE
:10A770004E00206000F004FB10B902E0FFF782FBFE
:10A780000EE00F492846FFF751FF0E4800F0E2FAAD
:10A7900030B900BF00F01AF8FFF7C0F841DFF9E761
:10A7A000032070BD00203070074800F033FCFFF735
:10A7B000EFFEF5E7902300201C0500404824002010
:10A7C00069A30200A9A0020055A2020010B501F081
:10A7D00007F9002803D0BDE8104002F09BBB10BD74
:10A7E000034A93680A4601469860184602F048BB3F
:10A7F0009823002070B50E4D2878002817D101F05D
:10A80000EFF8012690B10B480468A4F54864962C33
:10A8100000DA962402F07EFB07492046FFF7E0FFAE
:10A820004FF0E0214FF48030C1F800012E7070BD70
:10A83000C92300200405014051CF02004068806810
:10A84000004710B542680830527900F0F9F800204E
:10A8500010BD2DE9F04399B01C4690460D460846C0
:10A86000DDF88090FFF7EAFF6E6807467079A04236
:10A8700000D804462246414611A800F01DF972791D
:10A88000494601A800F0DCF801AB224611A905F108
:10A8900008000097FDF788FF18B1002019B0BDE847
:10A8A000F08348F24250F9E770B516460C4605466B
:10A8B00000F0EAF800280ED1AA791946304600F0D7
:10A8C000F0F8002807D131462046FFF7BAFF0028EC
:10A8D00001D10149216070BD7052464D2DE9F84FFC
:10A8E0006C460D46D4E90A688246994617461149D6
:10A8F000284600F0BDF8002801D0A54614E068689D
:10A90000414640794200304600F0CBF8002801D0A3
:10A91000A54609E057B182B04B463A462946504613
:10A920000096FFF796FFA546BDE8F88F48F2105055
:10A93000A546F9E77052464D2DE9F0411D46DDE987
:10A9400006871646044600F02DF800280DD12A4649
:10A950003146204600F03CF8002806D13A464146F0
:10A960002046BDE8F04100F002B8BDE8F08170B5C6
:10A9700015460E46044602F0BDFA002807D13EB146
:10A9800060682968C268914205D248F2145070BDCF
:10A9900048F2135070BD83682A4631462046BDE810
:10A9A0007040184710B550B161B141600968044664
:10A9B0008847002802D105482060002010BD48F2D9
:10A9C000015010BD48F2105010BD00006E524648B4
:10A9D00070B515460E46044602F08CFA00280BD1DD
:10A9E00046B155B160682A46314643682046BDE805
:10A9F0007040184748F2105070BD002070BD000034
:10AA00002DE9F0410B480C4D0C4F401BC6080120AE
:10AA10003870002406E000BF55F834008047002855
:10AA200005D1641CB442F7D3022038700020BDE881
:10AA3000F08100000000000000000000CA23002098
:10AA400070B514460D46064600F036F8291930193F
:10AA50002246BDE8704000F02FB830B50C460546E0
:10AA600000F035F828192146BDE8304000F02FB835
:10AA700028B10068884205D048F24050704748F23B
:10AA8000105070470020704728B139B10022C1E949
:10AA900000201046704748F21050704748F213509B
:10AAA000704720B1914205D048F21150704748F2EA
:10AAB00010507047002070470244521E04E000BF4F
:10AAC00011F8013B02F801398242F9D27047014482
:10AAD000491E05E002780B7800F8013B01F80129D6
:10AAE0008142F7D2704700000248006A012800D076
:10AAF00000207047703C0020AFF300804FF44050BE
:10AB0000074A4168914207D18068411EC1F30B0199
:10AB1000401A00F6FF7070474FF4805070470000F5
:10AB2000DBE5B15100B5FFF7E9FF054989690A186E
:10AB3000401E0844C0F30B00101A00F6FF7000BD61
:10AB4000703C002000210160416081600148016388
:10AB500070470000703C00202DE9F0439946274CD7
:10AB6000274F90460E460546002301215BB1012B7D
:10AB700012D0022B1FD00020381AA0F50050A84296
:10AB80001CD201221BE0FFF7CDFFB8F1000F10D05F
:10AB9000216A0129F0D00CE0FFF7B0FFB9F1000FF6
:10ABA00005D14FF44051174A4968914201D0012123
:10ABB000E2E70021E0E74FF48050DDE7002242EABF
:10ABC0000600884305D0022B03D25B1CDBB2022BAC
:10ABD000CBD912B10420BDE8F0831BB1074818306F
:10ABE000FFF7B0FF0020206101206061034824309E
:10ABF000FFF7A8FF00206562EDE70000703C002031
:10AC000000800200DBE5B15170B5044600780928E8
:10AC100011D2DFE800F010051011251038101300D4
:10AC20000D461D490320C9688847606900F0E6FAAF
:10AC3000FFF7FBFA687070BD084628E00D46A18A50
:10AC4000206900F0B7FAFFF7F0FA68702846FFF7BE
:10AC500031F9E1680029EED02069BDE8704008476D
:10AC60000C460D490831081F00F0E6FAFFF7DDFA3F
:10AC700060700128DFD1002000F02CFA0028DAD023
:10AC80000A20607070BD08464FF48071C160BDE855
:10AC90007040FFF70FB90000EC23002070B51A4A8E
:10ACA00005780124936C092D2CD2DFE805F02B05E3
:10ACB0002B0B0F2B252B080000F0D0FE22E000F01C
:10ACC00043FF1FE08B60106D48601BE0D2E9145415
:10ACD000566C2C1BA64203D008204870012411E0BA
:10ACE0000024556554642146D36400F0F1FE074901
:10ACF0000420C968884705E08B60106D48604FF4F8
:10AD00008050C860204670BD703C0020EC230020BD
:10AD100013460A460146014800F0B0BB3424002027
:10AD200008B1034900E003490022034800F0BCBB1E
:10AD300028D30200F8D202003424002008B5009382
:10AD400013460A460146024800F046FC08BD0000D2
:10AD500034240020084910B508600020FFF7C4F92A
:10AD6000064800F0E5F9002804D1BDE8104003488A
:10AD700000F026B810BD0000CC230020E9A002009E
:10AD8000002070471FB58908002201AB009283E8BC
:10AD90000700684618DF04B010BD00001FB5044B63
:10ADA0000FCB8DE80F00684618DF04B010BD00001F
:10ADB000ACD202004FF4805041040860002070477C
:10ADC00010B5040011D00120FFF7AAFF00280BD115
:10ADD00000F0C8F900F0AAFA48B10949081F00F0CC
:10ADE0002BFA012803D0032010BD072010BD044812
:10ADF0000838C4600020FFF727FA002010BD0000CB
:10AE0000F4230020816819B1024A1821FEF736BDEB
:10AE10000720704719AE0200AFF3008030B587B04D
:10AE20000446182231496846FDF7FBFA20788DF870
:10AE3000000022782E4D0D2A55D2DFE802F0072DB2
:10AE4000472D2D542D252D21091C2900012018E006
:10AE50004FF08050D0F800110191D0F80411029108
:10AE6000D0F80C1189020491D0F8101189020391D5
:10AE7000006905902AE06946204600F0C3FE25E0FF
:10AE8000207C8DF8040021E0208AADF804001DE04C
:10AE9000E9680720884719E020466946062A01D05C
:10AEA000012A01D1027C2A702A78012A07D0022ABD
:10AEB00008D00020287005208DF8010006E0FFF77B
:10AEC000A3FE03E0FFF7EAFE00280AD0D4E901124E
:10AED000684690479DF80100012802D0E9680520E6
:10AEE000884707B030BD0220E6E70000D4D2020058
:10AEF000EC23002038B1054901600549416001217A
:10AF00000172002070470E207047000015AF02004C
:10AF10004DAF020010B50C0001464FF0110007D0F4
:10AF20002278052A05D2DFE802F00F050D0F0F0089
:10AF30000E2010BD084600F051F80028F9D102217A
:10AF4000217010BD112010BD082010BD0246082040
:10AF500041B10B78022B04D1022A05D0032A00D17B
:10AF6000112070470E207047002003220A7070479E
:10AF700070B50B480024D0F85C11491C03D1D0F8FF
:10AF80009C01401C09D04FF43C35284600F044FB9E
:10AF900057220349284600F057FB204670BD0000A9
:10AFA000703C002010B528B11C220349FDF739FA86
:10AFB000002010BD0E2010BD9CF1020010B5064C03
:10AFC00000221821201DFEF77DFF2168814201D15A
:10AFD000012010BD002010BD9CF1020070B50C4D89
:10AFE0000400D5F89C0105F5CE7503D0401C03D0B4
:10AFF000082070BD0E2070BD00221821201DFEF714
:10B0000061FF206007222146284629DF70BD00002D
:10B0100000F00200014901F057BC000000F00200FE
:10B020002DE9F047FFF77CFEC0BB1D48FEF768FF27
:10B030001C4E04463068FEF763FF05462C424FF471
:10B04000DC790FD0164F58213A46042001F04CFC11
:10B0500080463A464FF4AE715C2001F045FC18EA98
:10B06000000F09D03CB14A460D490F48FDF7D9F908
:10B070000020BDE8F0872DB14A460B483168FDF746
:10B08000D0F906E049460848FDF7E4F906490120F1
:10B090004860002000F00AF80028EAD00320E8E722
:10B0A00000F00200FC230020703C002010B5044694
:10B0B000064801F013FC05492246A1F55C730860BF
:10B0C000BDE81040024801F01FBC0000703C0020A9
:10B0D00000F0020070B505460020FFF7E7FF04000E
:10B0E00003D10349284601F0EFFB204670BD000064
:10B0F000703C00204FF48050704700002DE9F04173
:10B1000007460948094D401BC6080020044607E0D1
:10B1100005EBC400416838468847002802D1641C0A
:10B12000B442F5D3BDE8F081E8D50200E0D50200D5
:10B130002DE9F04107460948094D401BC60800208B
:10B14000044606E055F8341038468847002802D1F6
:10B15000641CB442F6D3BDE8F0810000E8D50200DB
:10B16000E0D5020030B50E4C0E4D91B0A06B30B161
:10B1700001F0EEFD18B1606A08B1012000E0002086
:10B180002870FFF73DFC202207496846FFF758FC6E
:10B1900040236A4605490648FFF786FB11B030BDDB
:10B1A000703C002000240020F0CF0200304000203E
:10B1B00070D002002DE9F0410F4C07460D46E06BC0
:10B1C000A26B01264119914201D9032610E00A49D8
:10B1D0002A465C3108443946FDF723F9E06B064AFC
:10B1E0002844E063403229463846FEF76BFE20646F
:10B1F0003046BDE8F0810000703C002070B50500CD
:10B200004FF0010404D0B5F5807F03D904240CE08D
:10B2100003240AE006490020064E0870202130630E
:10B2200006F13800FDF716F9B563204670BD000041
:10B2300000240020703C00202DE9F041374C0E46E0
:10B240000746D4E90E010125814201D0082561E0BD
:10B25000DFF8CC8098F8000028B1FFF763FC386075
:10B26000606A306056E001F073FD98B32D4890F8A5
:10B270009C1009B9017869B3041D0021396031605F
:10B2800090F89C300A462BB1264C90F83811A03427
:10B2900004F1990294F8590001F0D2FC0546012806
:10B2A00038D1201D00F0ACF80546012832D1012329
:10B2B00088F800300F2594F85910002019B994F837
:10B2C0006820012A07D0CA0708D094F85A20012A1A
:10B2D00003D003E01DE0E06E0DE0E06D89070AD5C4
:10B2E00094F86010012906D10F4A616EC2F5383218
:10B2F000914208D8084468B1002101250A4630600F
:10B30000FFF72AFC08B1042504E0FFF70BFC3860C6
:10B3100000E005252846BDE8F0810000703C0020D3
:10B3200000240020283E0020008002000148007810
:10B3300070470000002400202DE9F04306462C4809
:10B340002B4D8BB090F89C008846012708B1A4359E
:10B3500000E00835202002460A90444605F16F01BE
:10B3600002A8FFF7A9FB0AA92248CDE9000123465C
:10B3700032462149A0F59870FFF7DEFA1F4C4FF0D6
:10B38000000928B9202202A91A48FDF76EF808B171
:10B39000172717E095F8550048B100F00101C0F3F8
:10B3A00040023346284601F0B5F850B105E00120CF
:10B3B000C4F82090E0626868A060A06CC4E90980CD
:10B3C00004E005270D482430FFF7BCFB0B48202183
:10B3D0003830FDF73FF80948FF22F4215C30FDF7D3
:10B3E00032F8C4F83090A6640BB03846BDE8F0835C
:10B3F000283E0020D840002058D00200703C002099
:10B4000070B5044690F85400012578B394F85500BF
:10B4100028B1012803D0022801D0032829D194F8AB
:10B420006D00032801D0142524E0207AF0B1E068F3
:10B43000342801D011251DE0204601F0E9F970B152
:10B440002078002894F8550011D00B4948B1012804
:10B4500007D06068C96888420CD810250AE0122518
:10B4600008E060688968884204D2F6E701E00128B4
:10B4700000D00F25284670BD703C00202DE9F0411A
:10B480000446406815461E4602680F466A43204639
:10B49000FEF770F9206833462A46D0F810C03946C6
:10B4A0002046BDE8F041604701600B68114618472F
:10B4B0002DE9F04128B1016819B1C969BDE8F04131
:10B4C00008470D4D0D480024461B14270DE000BF12
:10B4D00004EB840005EB8000016829B1C969884745
:10B4E00010B10120BDE8F081641CB6FBF7F0A0426A
:10B4F000EED80020F6E70000342400204824002085
:10B50000044801214174007A08B1002070470120ED
:10B5100070470000F0420020012801D0032808D124
:10B520000449002201284A7400D00020087401F068
:10B5300051B87047F042002070B50146022801D092
:10B54000032943D1224C207A00283FD0012831D052
:10B5500002282FD11F4800230229006802D00329A6
:10B5600028D119E0E360027912B1012A22D10BE05F
:10B57000D0E90565721B142A00D314222A44826183
:10B580004569AA420ED015E00169491C0161426972
:10B5900091420FD1237213E0E268521CE260082A44
:10B5A00008D9E360237202290AD00D21FEF713FEA9
:10B5B00001F006F8607C28B1BDE8704000F076B973
:10B5C0000021F3E7BDE8704001F004B870BD000051
:10B5D000F0420020242400202DE9F84304461D46B3
:10B5E00016460F460846DDF82080FEF7BDF83046C7
:10B5F000FEF7BAF82A4639462046FEF7BBF8CDF8E2
:10B60000008020682B463246D0F80CC039462046D0
:10B61000E047BDE8F8830000094902220A60BFF351
:10B620006F8FBFF34F8F0A1D106006480268002A13
:10B63000FCD000200860BFF36F8FBFF34F8F7047BF
:10B6400004E5014000E4014070B50E4C0123236085
:10B65000BFF36F8FBFF34F8F00230B4D08E000BF88
:10B6600051F8236040F823602E68002EFCD05B1C4C
:10B670009342F5D300202060BFF36F8FBFF34F8F4D
:10B6800070BD000004E5014000E4014008B500225F
:10B6900042504058009008BD20B10349096801603C
:10B6A000002070470E207047C0D40200FEB5064649
:10B6B0000C460846FFF7F0FF002840D10025009512
:10B6C0000195012706208DF80060ADF80400029571
:10B6D0008DF8027069462020226869DF0095019587
:10B6E00002958DF8017069464020226869DF009557
:10B6F0008DF80060F720ADF80200019502956946CB
:10B700002320226869DF0095019502958DF800706D
:10B7100069460120226869DF4FF4B060009001950E
:10B7200002956946A120226869DF0095019502957E
:10B730008DF800506946A020226869DF0020FEBD18
:10B7400060DF002802D1024A012111707047000019
:10B750002F24002030B51548ADF5017D0078002874
:10B7600021D04FF4FA7500BFADF8005280A96846A9
:10B7700061DF38B1052816D00DF5017DBDE83040F8
:10B78000FEF77AB86C460A497DA800F0BBF806E0DF
:10B79000D0E90021204690477DA800F0CAF87F98A4
:10B7A0000028E1D0F4E70DF5017D30BD2F24002005
:10B7B000C4D40200F8B5134C2078C0B10120A070A9
:10B7C00001F054F8112814D0022001F067F8002588
:10B7D0008DF800506846FEF7D7F811DF0646257051
:10B7E0009DF80000FEF7F4F82EB13046F8BD0820B1
:10B7F000F8BD0020F8BDA57001F062FA032001F049
:10B800004DF8F6E72C2400207CB5194C207808B1BF
:10B8100008207CBD0120A070002001F027F811282D
:10B8200019D0002001F03AF8124800260068019073
:10B830008DF800606846FEF7A7F80F4901A810DFF1
:10B8400005000AD0002020709DF80000FEF7C0F827
:10B850002DB128467CBD00207CBD0120F3E7A670F9
:10B86000667001F049FA012001F018F8F3E70000D2
:10B870002C24002058D40200759802000EB5074908
:10B88000684600F03FF805E0D0E9001088476846B8
:10B8900000F04FF802980028F6D10EBD74D40200D3
:10B8A00001480078704700002C240020054881786A
:10B8B00019B1007818B1FFF77DBF08207047FFF776
:10B8C000A3BF00002C2400201FB568464BDF30B119
:10B8D000052814D004B0BDE81040FDF7CDBF0849DD
:10B8E00001A800F00FF806E0D0E900210098904789
:10B8F00001A800F01EF803980028E6D0F4E71FBD69
:10B90000E0D40200016009684160AFF3008010B527
:10B91000D0E900215368994201D1002104E0D1E926
:10B920000034A34202D01946816010BD0831416045
:10B93000F0E7816800290BD0026892680A448260AF
:10B9400041684B689A4203D108314160FFF7DFBF7D
:10B95000704700002DE9F04104461348134BC01A0C
:10B960000C21B0FBF1F6A0694FF0FF3110F8022C6A
:10B9700002B92169002011E000EB400503EB8505C9
:10B980002F68974209D14F1C02D06F688F4204D1B3
:10B9900094E80F00AD68A84703E0401CB042EBD329
:10B9A00001202060BDE8F08138D602002CD60200CC
:10B9B00010B5144612680830202A02D248F21450FA
:10B9C00010BD002200F0C8FF0028F9D1202020601F
:10B9D000002010BD083001F047B8083001F006B96A
:10B9E00002480068002800D0012070470004014090
:10B9F00030B587B00C460546182215496846FCF755
:10BA000010FD207B0195134D8DF80000012806D014
:10BA1000022814D0062816D1607B049013E00E484B
:10BA2000FFF76CFBA888E880607B0490217CE089AC
:10BA300061F31F40617C40EA0160059003E0B4F8C7
:10BA40000D00A880E8806846FFF7DCF907B030BD3C
:10BA5000FCD10200D0230020E0D502002DE9F04106
:10BA60000C460546FFF762FC0826B8B16969032059
:10BA700041B3154A154B0F0505D0576DD3F808C0D3
:10BA80000F4467451ED1B1F5805F01D9042019E04C
:10BA9000506DD3F808C04718674502D96670BDE8F5
:10BAA000F0815164D16C10659164106369695A68C2
:10BAB00001F6FF711044090B0022FFF729F9002855
:10BAC000EDD005206070EAE7703C0020EC230020F8
:10BAD00010B5044686B00020FFF7EAFC30B1154AE5
:10BAE00018212046FDF7CAFE06B010BD18221249E3
:10BAF0006846FCF796FC1148026D114881688A423D
:10BB000010D14068FFF718FC8DF80100FEF78DFB9F
:10BB10008DF80100D4E90112684690470948FFF703
:10BB2000D9FAE1E701208DF80100D4E90112684655
:10BB30009047D9E7D1BA0200BCD20200703C002085
:10BB4000EC230020BDBB020070B50E460446FFF793
:10BB5000EDFB58B1174DD5E91401401AA28A696C62
:10BB60001044884204D90320707070BD0820FBE7A0
:10BB70001149286B49680844D4E90331FFF7DEF81E
:10BB800020B1D4E90310BDE870400847A18A286BB2
:10BB9000084A08442863A18A286D48320844286569
:10BBA000A18A2069FEF78EF9A864B060286D7060E4
:10BBB00070BD0000703C0020EC23002001490620ED
:10BBC000C9680847EC23002009480068C00700D076
:10BBD00000BEBFF34F8F0648E4380168054A01F400
:10BBE000E06111430160BFF34F8F00BFFDE700002C
:10BBF000F0ED00E00400FA0501460148FEF798BCAC
:10BC0000E8D502002DE9F0414FF440520C46204E99
:10BC1000536801214FF0020CB34200D102211D4DA7
:10BC20002B6A012B00D1491C01276770037C1BB1D3
:10BC30000020012B09D01BE084F804C0E868A06054
:10BC40001548E060C0F538300FE0D2F804C0B445C4
:10BC50000ED120711078142801D9506900E000201D
:10BC6000A0604FF48050E06090682061BDE8F081F2
:10BC70008B4207D22771A868A060FEF73DFFE06005
:10BC8000A869F2E7FF212171A060E060EDE7000004
:10BC9000DBE5B151703C00200080020030B58A1D08
:10BCA0008B79083187B0022B33D153888489A34222
:10BCB0002FD1127A012A2CD1184C0DF1040C3CCC56
:10BCC0008CE83C000A89ADF80C204A890C310491BB
:10BCD0001249ADF80E208039114C096A0591CDF852
:10BCE00018D0018A05AA6088ADDF18B96846FEF74A
:10BCF000C5F838B10020ADF8080001A96088B0DFB0
:10BD000050B106E040F2FD10ADF8080001A96088CE
:10BD1000B0DF002007B030BD0120FBE714D20200E5
:10BD2000D0230020F8B50D4614460646694600F0BB
:10BD30005DFA00280ED0009BFF2B0AD8581C8342C6
:10BD400007D869780222B2EB911F02D0297981428B
:10BD500001D20020F8BD2370611C3046009A00F02B
:10BD60006FFBF8BD114600F0D5B8114600F0E7B8FA
:10BD7000F8B50C4615460646694600F037FA002825
:10BD80000CD0009A501C904207D361780223B3EB89
:10BD9000911F02D02179814201D20020F8BD2946AD
:10BDA000304600F04DFB009A0021A954F8BD2DE962
:10BDB000FF410C468E6817460546694600F012FBA7
:10BDC00000280ED0A06800280BD060783A46C0F357
:10BDD000011002283146684606D000F0DFF80199CC
:10BDE000696004B0BDE8F08100F085F8F7E77CB544
:10BDF0000D461446694600F096F9002820D02879AF
:10BE0000082806D0042809D002280AD001280CD01E
:10BE100015E0DDE90001C4E900010AE000982060B6
:10BE200006E0009800B2208002E0009840B2207046
:10BE3000C117DDE9002350405940084301D00020DC
:10BE40007CBD01207CBD7CB50D461446694600F0E2
:10BE5000A8F9002820D02879082807D00021042834
:10BE600009D002280AD001280CD014E0DDE9000135
:10BE7000C4E9000109E00098206006E0009880B263
:10BE8000208002E00098C0B22070DDE9002350401D
:10BE90005940084301D000207CBD01207CBD7CB509
:10BEA0000D461446694600F07CF9002820D0287918
:10BEB000082808D00099CA1704280BD002280CD0F3
:10BEC00001280DD013E0DDE90012C4E90012084694
:10BED000134608E00846216004E008B2208001E033
:10BEE00048B22070C31748405340184301D0002087
:10BEF0007CBD01207CBD70B50D460646144611463A
:10BF0000284600F08AFA224629463046BDE87040AD
:10BF100000F044B838B50C460422694600F090FAA7
:10BF200000280BD09DF80210BDF8000061F31F40FF
:10BF30009DF8031040EA01602060012038BD1CB567
:10BF40000C460822694600F07BFA002824D09DF8B0
:10BF500001109DF800209DF80230080E42EA0122EF
:10BF600042EA034240EA13409DF803309DF8041072
:10BF700040EA132008439DF8051042EA036240EAB4
:10BF800001209DF8061040EA01409DF8071040EAA4
:10BF90000160C4E9002001201CBD00002DE9F04F24
:10BFA00005469DB000200F90064610904FF0FF3AD6
:10BFB00001A800F053F94FF0010B0DF13C0983E0AB
:10BFC00012AB6A460BA9284600F0CAF850B101A886
:10BFD000009900F054F960B10298407810F0300FE9
:10BFE00054D061E09DF84800002871D11DB0BDE833
:10BFF000F08F0098B04243D3029C01AE0298407883
:10C0000000F00F00082812D0304600F04FF90298D7
:10C01000A042F3D156460098B04231D3D5F80880FB
:10C0200007909DF82C000E900598046821E0029876
:10C030000678F0E7206807682FB1214628460E9B56
:10C04000079AB84712E01195216807980E9F8968F2
:10C05000097881420CD1214617A8FEF7B9F984F876
:10C060000CB017AA39461198FDF798FF0028BDD0EB
:10C07000A46814B1A9684145DCD0A968414523D121
:10C080009DF82C10284600F017FA1BE00398402872
:10C090000AD200F01F000BFA00F20398400959F889
:10C0A0002030134349F82030EC682CB101AB9DF8E7
:10C0B0002C2028460099A04701AA9DF82C1028465C
:10C0C000FDF76CFF002891D0A86800287FF478AFB6
:10C0D000DDE90204457801A800F0E8F80028F7D16E
:10C0E00015F0300F03D10298007800B1641CC4B180
:10C0F0000020494605E000BF51F82020521C0ED117
:10C10000401CB0EB541FF7D3600959F8201004F01D
:10C110001F00C0F120022AFA02F0814201D0002063
:10C1200064E7012062E71CB50C46694600F039F867
:10C13000002814D0DDE90002C10709D051084FEAF8
:10C1400030006FEA00026FEA0100C4E9002004E059
:10C1500051084FEA3000C4E900014FF001001CBD56
:10C16000F8B507460020187008700E4610601C468F
:10C1700015466946384600F039F801004FF00100D5
:10C1800009D0009959B1C8082860009800F007004C
:10C1900030700120F8BDB96809B10020F8BD2070E9
:10C1A000FBE72DE9F84300268846814634463546AC
:10C1B00004E0402E02D30020BDE8F88369464846DB
:10C1C00000F06AF90028F7D09DF80070324607F0B9
:10C1D0007F00C10FFCF716F929430443F61D0D46F5
:10C1E0003806E6D4C8E900410120E5E7F8B50E4677
:10C1F0000746694600F050F900280AD09DF8004033
:10C20000200616D5072504F07F0403E0202D01D376
:10C210000020F8BD6946384600F03EF90028F8D005
:10C220009DF8001001F07F00A8400443ED1D0806B2
:10C23000ECD401203460F8BD5968064A89689142FF
:10C2400006D1D0E90110044A401E491CC2E9011080
:10C2500070470000A4D0020000240020C260002328
:10C260000160C0E901138B781A44026191F903302F
:10C270001A4442610878002800D00120704770B548
:10C2800045680E46044660680178B14206D14078A0
:10C2900000F00F00082801D0012070BD204600F0FA
:10C2A00005F86068A842EED1002070BD30B5416845
:10C2B0000A785AB101F10C0343600A7B42B14C7811
:10C2C0000A79C4F30115032D07D00BE0002030BD1F
:10C2D000C2680168FFF7C2FFF8E75D78C5F3011592
:10C2E000032D07D00225B5EB141F09D14C7914FB9F
:10C2F00002F209E08D7804690022641B046103E006
:10C30000B5EB941F00D10422497811F0300F02D10F
:10C310008168491C81609C78016921441144016154
:10C3200093F9032011444161012030BD30B54168CB
:10C33000002487B0497801F00F02082A11D08A0939
:10C340001ED00222B2EB911F09D10269C1F3011183
:10C350000229146001D0032901D14069047007B09B
:10C3600030BD0069056808E02C7329466846FEF771
:10C370002FF86846FFF7DAFFAD68002DF4D1EEE73D
:10C38000C1F30111012912D00229E6D00329E4D01A
:10C390004268517801F00F0107290BD0916881B1F3
:10C3A0001279006907B0BDE83040FCF73AB841693E
:10C3B0000C70EDE70169906807B0BDE8304000F00F
:10C3C0002CB81179006907B0BDE83040FCF742B8DD
:10C3D00010B5034B002408C080E8160010BD000013
:10C3E000999E020038B50D4604466946FFF7FEFEE9
:10C3F00000280BD0D4E90002D4E90213C5E90002F9
:10C40000C5E902130098814201D2002038BDA8601E
:10C41000A168081AA060012038BD00B50A4687B09F
:10C4200001466846FFF71AFF002807D06846FFF765
:10C430007DFF6846FFF73AFF0028F7D107B000BD3F
:10C440007FB514460546A9B9124A2868904208D11A
:10C4500010E0102269462846FFF7F2FF002807D0B7
:10C46000103C102CF5D8224669462846FFF7E8FF15
:10C4700004B070BDA868A04201D20020F8E72B6884
:10C480002246284698470028F2D0A868001BA860DA
:10C490000120EDE7999E020010B50446806800284F
:10C4A00009D02368012220469847002803D0A068BD
:10C4B000401EA060012010BD38B5002439B101290B
:10C4C00012D0022912D005291DD0002038BD054602
:10C4D000012269462846FFF7B3FF90B19DF800009E
:10C4E0000006F5D4012038BD08220DE00546694656
:10C4F000FFF77CFE28B100212846009AFFF7A0FF35
:10C5000038BD204638BD0422BDE838400021FFF781
:10C5100097BF00002DE9F041264C1546064679B339
:10C5200003F5005324495A68B06D8A4230D1421E47
:10C53000C2F30B02801A41F6FF729F6810448742D3
:10C5400026D34FF4405042688A4202D04FF0010196
:10C5500001E04FF0000114D10178142901D941699B
:10C5600000E0002115481A78B1FBF0F1142A01D936
:10C570005A6900E00022B2FBF0F0814202D10AE0E9
:10C5800011E041B125B10B481830FEF7DBFA03E0AA
:10C590000020BDE8F0810DB1AC2000E0A520E062F4
:10C5A000B06D606301E0AA20E0620DB17068E060E8
:10C5B0000120EEE7703C0020DBE5B15140420F0066
:10C5C000034802490068FDF75FBF000028240020EF
:10C5D00018D302002DE9F041224C0025224E207A8A
:10C5E000012730B92148311D0068FDF758FF306040
:10C5F00038B1022020723168087928B101281CD195
:10C6000014E06560BDE8F081D1E90503C01A142883
:10C6100000D31420B7EB900F01D2820800E0012272
:10C620000869C9681844194429DF03E0D1E9030106
:10C63000084428DF58B1112812D003213068FDF7D3
:10C64000CAFD25726560BDE8F041FFF7B9BF207CE7
:10C650000028D7D1BDE8F04100210220FEF76CBFD1
:10C660002772CFE7F04200202424002018D30200D4
:10C6700010B5074C201DFDF72BFF002806D1607C6C
:10C68000002803D1BDE81040FFF7A4BF10BD000093
:10C69000F042002010B510461A46FBF7C2FE0020FB
:10C6A00010BD10B510461A46FBF7BBFE002010BDAA
:10C6B0002DE9F0411E681C461546074621B10129A7
:10C6C00018D0052923D119E000202060401C2060EB
:10C6D000B0421CD8012229463846FFF7B1FE002897
:10C6E00006D015F8010B000601D52068EEE7012001
:10C6F000BDE8F08108200246186002E004200246EE
:10C70000186029463846BDE8F041FFF799BE002081
:10C71000EEE70000BFF34F8F05480168054A01F4BA
:10C72000E06111430160BFF34F8F00BFFDE70000E0
:10C730000CED00E00400FA0570B516460A46044602
:10C74000C11C104600F0B4FB054661193046C91CF7
:10C7500000F0AEFB284470BD03B5094A85B0D2E9AC
:10C760001612CDE9001207498989ADF8001006A913
:10C77000CDE90210044869464088AEDF07B000BD2D
:10C7800094D10200A4280020D0230020084670473E
:10C790000846704770B5FEF7ADFC114A114E136B99
:10C7A000546B916CE21A551EC5F30B05521B42F2F5
:10C7B000040518446D5802F6FF72B54201D00320FB
:10C7C00070BD1944A34201D1002070BD0823FDF7BC
:10C7D00083FD0028F9D1BDE87040FEF77BBC000066
:10C7E000703C0020DBE5B15170B5034600200246E5
:10C7F0004FF4405409E000BF53F82250A689B542D7
:10C8000001D1012070BD521CD2B28A42F4D370BD56
:10C8100010B54FF44051144B4A68017C9A4219D12B
:10C8200000F1140231B1436923B1BDE81040104654
:10C83000FFF7DABF90F8553013B1012B08D10CE0A7
:10C84000012905D9406918B91046FFF7CDFF04E06A
:10C85000012010BD19B1416909B1002010BD007857
:10C860000028F5D110BD0000DBE5B1513EB504460E
:10C8700009496846FFF746F808E000BFD0E9002103
:10C880002046904730B16846FFF753F802980028D9
:10C89000F4D13EBD11203EBD5CD402003EB504463D
:10C8A00008496846FFF72EF807E000BFD0E90021ED
:10C8B000204690476846FFF73CF802980028F5D1DB
:10C8C0003EBD000068D4020002460348014B0068E8
:10C8D00000F01AB8B83A0020FC23002000225821AA
:10C8E000001DFDF7EFBA00000B1A1118054A10B52C
:10C8F000126810441A46FBF7B8FD08B1002010BDBD
:10C90000012010BDFC2300202DE9F04114464FF416
:10C91000DC751E460F4680462A46FBF7A6FD30B161
:10C92000002201214046FEF7F3F998B905E00CB169
:10C930000020A0470020BDE8F0812A463946304655
:10C94000FBF76FFD23462A4631464046FEF7F6F9CF
:10C950000028F0D00320EEE770B516460D4604001F
:10C9600007D035B1206C802200213828225403D30F
:10C9700007E00E2070BD2154401C3828FBD30BE08B
:10C980002154401C4028FBD32146084600F096F86D
:10C9900038212046FBF75EFD216CD4E912304A0FA6
:10C9A000C900383459185041C4E90410227CE2719E
:10C9B0000A0A42EA0062A2710A0C42EA004262716B
:10C9C000020242EA116020716069E070010AA17000
:10C9D000010C6170000E04F838092146084600F089
:10C9E0006DF84FF00002EEB1E06ED100C840A854DF
:10C9F000A36ECB40A8180371636ECB400372236E05
:10CA0000CB400373E36DCB400374A36DCB40037540
:10CA1000636DCB400376236DCB40521C0377042A11
:10CA2000E2D31FE018235042216D03EBC000C14048
:10CA3000A954666DC640A9180E71A66DC6400E7247
:10CA4000E66DC6400E73266EC6400E74666EC64016
:10CA50000E75A66EC6400E76E66EC640521C0E7768
:10CA6000042AE0D3002070BDA8B100210164C0E910
:10CA700012110A4901650A4941650A4981650A4955
:10CA8000C1650A4901660A4941660A4981660A493F
:10CA9000C166002070470E207047000067E6096AF3
:10CAA00085AE67BB72F36E3C3AF54FA57F520E51CF
:10CAB0008C68059BABD9831F19CDE05B2DE9F04F46
:10CAC000C8B0002213466F46CC181B1D2588A678D7
:10CAD0006DBA2D04E47845EA0625254347F822502F
:10CAE000521C102AF0D31BE007EB820151F8083CDE
:10CAF0004FEA734484EAF34484EA932451F83C3CBB
:10CB00004FEAF31585EAB34585EAD303234451F888
:10CB10001C4C51F8401C2144194447F82210521C67
:10CB2000402AE1D3036D4793416D4691846D45944E
:10CB3000C26D44929246026E4392456E4295A9465A
:10CB4000856E4195C66E4096B34600264FEAB217F1
:10CB500087EAF22787EA726C02EA090725EA0208E7
:10CB600087EA0807BC44204F57F8268008EB0B07DC
:10CB7000BC445DF82670AB460CEB070E4FEAB307DA
:10CB800087EA733787EAB35C81EA04074D4601EA16
:10CB9000040891461F400AEB0E02A24687EA0807E6
:10CBA0000C46BC441946761C0EEB0C03402ECDD32C
:10CBB000479E33440365469B19444165459921448A
:10CBC000816544995144C165439911440166429974
:10CBD0004944416641992944816640995944C16656
:10CBE00048B0BDE8F08F000048D302002DE9F041C5
:10CBF00016460F46040004D006B317B10025A84618
:10CC00001AE00E20BDE8F081216C785D6054206C44
:10CC1000401C206440280ED121460846FFF74EFFF5
:10CC2000D4E912014FF40072801841F10001C4F8F8
:10CC30004080C4E912016D1CB542E5D30020E1E754
:10CC40003EB54FF020001400029002D019B116201A
:10CC50003EBD13203EBD02A91548CDE9000115488F
:10CC60001549D0E901231548FDF766FE10B9227871
:10CC7000402A01D00A203EBD0D48611C4038FBF718
:10CC8000D0FB0B4820214038FDF7E7FE0848402143
:10CC90004038CDE90001A0F148010648044A0C30B3
:10CCA000029BFDF71BFE08B105203EBD01203EBDE5
:10CCB000B84000200024002058D00200A83F0020E7
:10CCC00010B51620FCF73EFD48B10A4882684FF4C3
:10CCD000800152B1016821F48001016010BDBDE8FE
:10CCE000104042F20100FCF7C7BD4FF0E020C0F851
:10CCF000801110BDF840002010B51620FCF722FD71
:10CD0000A0B1114890F800044009082811D201216F
:10CD1000814011F0EC0F0CD00C4882684FF4800178
:10CD20006AB1016841F48001016010BD42F2010066
:10CD300001E042F20200BDE81040FCF79DBD4FF05B
:10CD4000E020C0F8001110BD16E000E0F84000201F
:10CD50001FB50E4800F15C01826B6846FFF738FB97
:10CD60000B489DE80E0080E80E00094909480B4A6F
:10CD7000C860094900204860886009490448FFF7F5
:10CD8000BAF8002800D0012004B010BD703C00208B
:10CD90002040002039C2020000240020283E00204C
:10CDA00070D1020070B503466FF07F40814200D21F
:10CDB0000846124DD5F804250244081A411E22F0F7
:10CDC0007F425860952902D29630963A58601C7B73
:10CDD00005EB8400C0F8402509494FF4F860884706
:10CDE0004FF4A07000EB84012846FEF74FFC4FF48F
:10CDF0008030A040C5F8040370BD00000010014061
:10CE000051D0020070B5194E307800282CD1184846
:10CE100000680125C0F3004008B916480560164CAB
:10CE20004FF480712046FEF731FC4FF4A07120468C
:10CE3000FEF72CFC4FF4A2712046FEF727FC0F49A9
:10CE4000A02081F800044FF0E0214FF400300022D0
:10CE5000C1F88002C1F80001C4F80825A56025606A
:10CE60000220C4F80403357070BD00009823002030
:10CE700018040040080000400010014011E000E0EC
:10CE800070B515460E460446FFF7BCFF31462046F6
:10CE90002560BDE87040FFF785BF0000017B4FF4BF
:10CEA000803088400149C1F80803704700100140F4
:10CEB0000870020A4A70020C8A70000EC8700420C2
:10CEC0007047000010B50248FDF7FFFA002010BDC2
:10CED0002024002010B514210448FBF7BBFA0448B5
:10CEE0000068FDF7ABFA002010BD0000F042002002
:10CEF00018D3020030B100680549884205D048F2D5
:10CF00000250704748F201507047002070470000FF
:10CF10006E52464870B5FEF763FD002811D0002020
:10CF2000084A094B094C0121166801FA00F52E4206
:10CF300003D004EB8005C5F80036401CC0B20728BA
:10CF4000F2D370BD080501403546526E0000014025
:10CF5000FFF7E0BF00207047002070472DE9FC413B
:10CF600080461C4617460E460C48089DFDF7B0FA51
:10CF700010B11120BDE8FC81A20839463046FEF709
:10CF800063FB0648FDF7A1FA33463A4601214046C5
:10CF9000CDE90045FDF704F90020EBE7202400204F
:10CFA0002DE9F84F114D884681461E4617466946C1
:10CFB000DDF828A02868FDF75CFA040013D01C21D6
:10CFC000FBF748FA00202071C4F80090C4E90486F9
:10CFD000C4E902A769462868FDF76CFAFFF748FB29
:10CFE0000020BDE8F88F0420FBE7000018D3020002
:10CFF000CBFEC1E616880ECD1405F79840CFEDCDD7
:10D00000B53635B0B952E77F9383756446C9F38767
:10D01000FFA063A12931CA89AF9A4B5BE25FF4BEDE
:10D02000ADAFCFB9FB4D95FFF4B0AD751D4F5C8E24
:10D0300000000000000000000000000000000000F0
:10D0400000000000FFFFFFFF0000000000000001E3
:10D050000738FDD870470000D5B90200DBB90200DF
:10D06000B1B90200200000007800000000000000BC
:10D070004800280000204000A187020000000000B6
:10D080000101000001000000000000000205000096
:10D09000210000000000000000000000000000006F
:10D0A00000000000011104FC04000000000000006A
:10D0B000021104FC0400000000000000032104FC35
:10D0C0000410000000000000041101FF0100000036
:10D0D00000000000051102FE040000000000000036
:10D0E000061104FC0400000000000000071104FC0D
:10D0F0000400000000000000081701FF22000000EB
:10D1000080D00200091001FF010000007CD0020065
:10D11000000000000000000000000000011101FFFD
:10D120000100000000000000021702FE9400000051
:10D13000A4D0020000000000000000000000000079
:10D1400001070000980000001CD10200020100004D
:10D150000100000000000000030500004100000085
:10D1600000000000000000000000000000000000BF
:10D17000011704FC980000001CD10200021704FCF7
:10D18000DC00000040D102000000000000000000B0
:10D190000000000000110300001113000200000055
:10D1A000010000000738FDD870470C000C0000009B
:10D1B0005802000002000000000000000200000011
:10D1C00000000000682800200900000000000000A6
:10D1D0000000000001000000000000002800000026
:10D1E000000000000000000000010000000001003D
:10D1F000000000000000000000000000000000002F
:10D2000000000000159B020000000000000000006C
:10D21000000000000200000000000100000000000B
:10D22000000000000800000000000000159B020044
:10D23000F9BB020000000000000000000400000034
:10D2400000000000000000000000000000000000DE
:10D2500000000000000000000000000000000000CE
:10D2600000000000F40000000000000018000000B2
:10D2700000000000000000000000000000000000AE
:10D28000000000000000000000000000000000009E
:10D2900000000000170000000000000050EADA3033
:10D2A0008883B89F604F15F30000C98E020000000C
:10D2B000000000000000000000000000040000006A
:10D2C000000000000000000000000000000000005E
:10D2D000000000000001000000000000000000004D
:10D2E000000000000000000000000000001000002E
:10D2F00004000000010000006DA30200C5CE020082
:10D3000095C602005DCF02000DA102008DC702008C
:10D3100055CF0200B1A3020004410020001000001C
:10D32000040000000100000079A30200D5CE020035
:10D33000A3C60200A1CF020055A1020091C70200BE
:10D3400059CF0200C1A30200982F8A42914437713D
:10D35000CFFBC0B5A5DBB5E95BC25639F111F15978
:10D36000A4823F92D55E1CAB98AA07D8015B8312BA
:10D37000BE853124C37D0C55745DBE72FEB1DE8066
:10D38000A706DC9B74F19BC1C1699BE48647BEEF95
:10D39000C69DC10FCCA10C246F2CE92DAA84744A20
:10D3A000DCA9B05CDA88F97652513E986DC631A896
:10D3B000C82703B0C77F59BFF30BE0C64791A7D575
:10D3C0005163CA0667292914850AB72738211B2EFD
:10D3D000FC6D2C4D130D385354730A65BB0A6A76E5
:10D3E0002EC9C281852C7292A1E8BFA24B661AA8F1
:10D3F000708B4BC2A3516CC719E892D1240699D601
:10D4000085350EF470A06A1016C1A419086C371E79
:10D410004C774827B5BCB034B30C1C394AAAD84E57
:10D420004FCA9C5BF36F2E68EE828F746F63A57892
:10D430001478C8840802C78CFAFFBE90EB6C50A425
:10D44000F7A3F9BEF27871C604D602000CD602002A
:10D4500000000000000000000010020148D402009B
:10D4600058D402000800000080D4020090D40200CA
:10D470000800000090D40200A0D4020008000000C0
:10D4800024D602002CD6020000000000000000009C
:10D4900014D6020024D602000000000000000000A4
:10D4A000000000000000000000000000000000007C
:10D4B000FCD5020004D602000000000000000000BD
:10D4C00090230020A0D40200C0D402000800000075
:10D4D0000CD6020014D6020000000000000000007C
:10D4E000D0D40200E0D40200080000009FBE020079
:10D4F00047BE0200EFBD020065BD02006BBD020029
:10D5000025BD020071BD0200AFBD02000000000099
:10D5100008200001FFFFFFFFFFFFFFFFFFFFFFFFEE
:10D5200000000000000000000000000001000000FA
:10D53000FFFFFFFF512563FCC2CAB9F3849E17A702
:10D54000ADFAE6BCFFFFFFFFFFFFFFFF000000009A
:10D55000FFFFFFFF96C298D84539A1F4A033EB2D09
:10D56000817D0377F240A463E5E6BCF847422CE1F5
:10D57000F2D1176BF551BF376840B6CBCE5E316B39
:10D580005733CE2B169E0F7C4AEBE78E9B7F1AFEFD
:10D59000E242E34F4B60D2273E3CCE3BF6B053CC49
:10D5A000B0061D65BC86987655BDEBB3E7933AAAE5
:10D5B000D835C65A4B8602000D940200259202000F
:10D5C00038D6020090230020B80000002497020003
:10D5D000F0D6020048240020C02600003497020044
:10D5E0002D9C0200CD9B0200E0230020B8280020E3
:10D5F000C9280020CC280020F4000000C59C0200AF
:10D600000000000001B502000000000039B5020072
:10D610000000000055B7020000000000C9B8020079
:10D620000000000019B5020000000000000000002A
:10D6300003000000F5AE0200000000000000000042
:10D6400000000000A8230020B823002000000000F4
:10D6500000000000000000000000000000000000CA
:10D6600000000000000000000000000001000000B9
:10D670000000000000000000FF00FFFF00000000AD
:10D68000000000000000000000000000000000009A
:10D690000000000001000000000000000000000089
:10D6A0000000000000E00200000000000000000098
:10D6B000000000000000000000000000000000006A
:10D6C000000000000000000000000000000000005A
:10D6D00000000000000000000090D00300000000E7
:10D6E0000000000099A002000010000000000300EC
:020000041000EA
:041014000080020056
:020000041000EA
:0410180000E00200F2
:040000050002820172
:00000001FF
