:020000040001F9
:10900000D833002009940100119401001394010049
:10901000159401001794010019940100000000004C
:109020000000000000000000000000001B94010090
:109030001D940100000000001F9401002194010014
:109040006197010023940100C19A0100239401005B
:10905000239401000000000075950100DD970100D8
:109060002394010023940100239401002394010020
:109070002394010023940100239401002394010010
:1090800023940100B9970100239401002394010067
:1090900071980100759801008D98010023940100DA
:1090A0002394010023940100000000000000000050
:1090B0002394010023940100000000000000000040
:1090C00000000000000000000000000000000000A0
:1090D0000000000000000000000000000000000090
:1090E0000000000000000000000000000000000080
:1090F0000000000000000000000000000000000070
:10910000000000000000000000000000000000005F
:10911000000000000000000000000000000000004F
:10912000000000000000000000000000000000003F
:10913000000000000000000000000000000000002F
:10914000000000000000000000000000000000001F
:10915000000000000000000000000000000000000F
:1091600000000000000000000000000000000000FF
:1091700000000000000000000000000000000000EF
:1091800000000000000000000000000000000000DF
:1091900000000000000000000000000000000000CF
:1091A00000000000000000000000000000000000BF
:1091B00000000000000000000000000000000000AF
:1091C000000000000000000000000000000000009F
:1091D000000000000000000000000000000000008F
:1091E000000000000000000000000000000000007F
:1091F000000000000000000000000000000000006F
:10920000DFF810D000F076F90048004771C901007E
:10921000AFF30080D833002000BF00BF00BF00BF05
:1092200000BF00BF00BF00BF00BF00BF00BF00BF46
:1092300000BF00BF00BF00BF00BF00BF00BF00BF36
:1092400000BF00BF00BF00BF00BF00BF00BF00BF26
:1092500000BF00BF00BF00BF7047000030B450E83F
:10926000012F93B2C48923448489A34228BF1B1BC6
:109270000489A34202BFBFF32F8F002007E0C3EA97
:10928000020340E80134002CE9D14FF001000A60EC
:1092900030BC704750E8012FC2EA024240E8012189
:1092A0000029F7D1704730B450E8022F1FFAA2F31B
:1092B000C488A34202BFBFF32F8F00200DE0C489F2
:1092C00023448489A34228BF1B1BC2EA034340E80E
:1092D0000234002CE8D14FF001000A6030BC704726
:1092E00050E8022FC2EA224240E802210029F7D1C9
:1092F0007047034653E8022FD988B2EB324F4FF044
:10930000000017BF92B241EA014142EA014104E084
:109310005A68B2EB324F08BF012043E80212002A1C
:10932000E8D1704730B4044654E8000F0D4644E8D5
:109330000053002BF8D1156030BC704730B40446A0
:1093400054E8000F40EA010544E80053002BF7D130
:10935000156030BC704730B4044654E8000F00EA92
:10936000010544E80053002BF7D1156030BC70476D
:1093700030B4044654E8000F80EA010544E8005385
:10938000002BF7D1156030BC704730B4044654E868
:10939000000F00EB010544E80053002BF7D11560E6
:1093A00030BC704730B4044654E8000FA0EB010510
:1093B00044E80053002BF7D1156030BC704770B4FF
:1093C00004464FF0000054E8006F0D68AE4207BF3E
:1093D00044E80023012044E800630E60002B1CBF1A
:1093E0000020F0E770BC704730B4044654E8000F2A
:1093F00088422CBF451A054644E80053002BF5D19E
:10940000156030BC7047000006488047064800479A
:10941000FEE7FEE7FEE7FEE7FEE7FEE7FEE7FEE724
:10942000FEE7FEE79198010001920100202A04DB8B
:10943000203A00FA02F1002070479140C2F1200367
:1094400020FA03F319439040704740EA01039B0759
:1094500003D009E008C9121F08C0042AFAD203E0A9
:1094600011F8013B00F8013B521EF9D27047D2B20D
:1094700001E000F8012B491EFBD270470022F6E7FD
:1094800010B513460A4604461946FFF7F0FF20467A
:1094900010BD2DE9F05F0546002092469B468846A8
:1094A0000646814640241BE0284641464746224660
:1094B00000F032F853465A46C01A914110D3114673
:1094C00018462246FFF7B2FF2D1A67EB01084F46F8
:1094D000224601200021FFF7A9FF17EB00094E41AA
:1094E000201EA4F10104DFDC484631462A464346EB
:1094F000BDE8F09F064C074D06E0E06840F0010330
:1095000094E8070098471034AC42F6D3FFF77CFE8E
:109510000CF901002CF90100202A04DB203A21FA81
:1095200002F00021704721FA02F3D040C2F120027C
:10953000914008431946704730B58C1810F8012B3C
:1095400012F00F0301D110F8013B120906D110F8F7
:10955000012B03E010F8015B01F8015B5B1EF9D100
:1095600001E001F8013B521EFBD1A142E6D30020ED
:1095700030BD00002DE9F04700268AB0DFF8509199
:10958000B0464FF48075012437460696284603F00E
:1095900071FE38B1D9F80403204203D0284603F005
:1095A0005FFE26432D1D64007F1CADB2082FEDD356
:1095B0004FF4BE74204603F05DFE48B1204603F030
:1095C0004FFE46F0004606AA0121002003F020FECF
:1095D000404D16F0FF0F15D00127002437420DD063
:1095E00009EB8401D1F81005D1F81015C0F304205F
:1095F00055F82420C1F3014102B190477F00641C5B
:10960000082CEBD3002E5FDA4FF0FF30CDF810803E
:1096100054E0281910F8507F90F9000027F0C00896
:10962000401C3BD007A9404603F0E6FA10B34FEACE
:109630009719404601F07EFF55F820701FB1B9F12F
:10964000030F03D006E0B9F1030F27D104A9404668
:1096500003F0E2FA4FF0A04101EB8800D0F80007D8
:1096600006A9C0F3014A404603F0C6FA18B1BAF1A0
:10967000020F03D012E0BAF1030F0FD1B9F1030FBB
:1096800008D1BAF1020F1DD00221404603F098FD27
:10969000761CF6B217B149464046B847641C042C04
:1096A000B7D3002E10D06A460121002003F0B0FD90
:1096B00006990098884207D0069004980026344600
:1096C0000790A6E70321E0E70AB0BDE8F0870000B5
:1096D000006000406429002000F01F020121914039
:1096E0004009800000F1E020C0F88012704700F0CF
:1096F0001F02012191404009800000F1E020C0F8E4
:109700000011704700F01F020121914040098000C4
:1097100000F1E020C0F8001270474907090E002848
:1097200006DA00F00F0000F1E02080F8141D704709
:1097300000F1E02080F8001470470000BFF34F8F65
:1097400005480168054A01F4E06111430160BFF377
:109750004F8F00BFFDE700000CED00E00400FA05AC
:1097600070B54FF48076304603F084FB114CB5059C
:1097700060B1304603F085FB0120C5F8080360792D
:1097800020B9012060712168002088474FF482765B
:10979000304603F06FFB00280AD0304603F071FB1F
:1097A0000220C5F808032168BDE870400120084781
:1097B00070BD0000D825002007480021C0F84011E6
:1097C000C0F84411C0F84811C0F84C11C0F800119D
:1097D000C0F8041104F0E6BF00100140F8B51748C6
:1097E000D0F80411002919D00025C0F80451144CF8
:1097F000A0680A2813D3134800F0F0FC064680B294
:1098000000F0E0FCA08800F0ADFCA560207800909E
:10981000A38832460C490DA000F05AF9F8BD0A2180
:10982000B0FBF1F201FB1201054B064A9B1C401CE8
:109830001B8822F81130A060F8BD000000700040C5
:10984000582500206427002012EF01005B25735D7E
:1098500020424154203D2025642C20564F4C203D71
:109860002025642C2047203D2025640D0A0000009F
:1098700004F0E6BE0449087880F0010008704968E9
:10988000002900D008477047C825002003F0EABE31
:10989000F0B57C487B4B012600781B1D1A1D310753
:1098A00006280BD11C78240708D11478C4F30314BC
:1098B000032C06D0042C04D0052C02D0062807D097
:1098C00011E0B1F82443704DC4F304242C6002E08D
:1098D0001C78240707D11478C4F30314032C02D195
:1098E0006B4D6A4C6C67D1F83051D1F84442694FE6
:1098F000C4F342343C6006280CD11C78240709D1FB
:109900001478C4F30314032C04D1634C276827F0A4
:10991000807727604FF080470024C7F80C41C7F8D4
:1099200010415C4F3F1F3C60062807D11F783F075E
:1099300004D11778C7F30317032F02D0062808D0E5
:109940001DE0DFF850C103270CF1640CCCF8007067
:1099500007E01F783F0712D11778C7F30317032FCB
:109960000DD1DFF838C10527CCF800704B4F7837A0
:109970003E604A4E083634603F24361F3460484CFF
:109980002468484E3460464C241D2468361D3460DB
:10999000434C08342468361D3460414C0C34246830
:1099A000361D34603E4C10342468361D34603C4C07
:1099B00014342468361D3460394C18342468394E08
:1099C00020363460364C1C342468361D3460344CE8
:1099D00020342468361D3460314C24342468361D0C
:1099E00034602F4C28342468361D34602C4C2C34C1
:1099F0002468361D34602A4C30342468294E4036A1
:109A00003460274C34342468361D3460244C383498
:109A10002468361D3460224C3C342468361D346082
:109A20001F4C40342468361D34601F4EFB243460C4
:109A3000062811D11C7824070ED11478C4F303141E
:109A4000032C03D0042C01D0052C05D1D1F85842A9
:109A5000164E04F04F04346015480268D20702D055
:109A60006FF001020260062D08D1D1F834010628FA
:109A700004D11048016841F4806101600F490E482B
:109A80000860F0BDE00F00F0403501400DF0ADBAC8
:109A900000C007403C050040FCED00E010560040CF
:109AA0000404001020C5004018F50040E40E0040FA
:109AB000000400403C1700400090D0032C260020FA
:109AC0000149024804F0B6BFC02900200020004030
:109AD0000FB4054B10B503A9044A029800F03EF8F4
:109AE00010BC5DF814FB0000D1BF0100302600203F
:109AF0000FB4084B10B504A902AA039800F02EF881
:109B0000044602A9002000F054FA204610BC5DF87B
:109B100014FB0000B39F010002E008C8121F08C137
:109B2000002AFAD170477047002001E001C1121FDE
:109B3000002AFBD1704700000121202803DA814070
:109B40000548014003E0402802DA2038814009B18D
:109B50000120704700207047FC06FFBD2DE9FF4F34
:109B60008DB00F460546002606E025280BD0DDE91E
:109B70000F1290476D1C761C28780028F5D111B083
:109B80003046BDE8F08F0024A246A1460122E949F3
:109B900000E0044315F8013F203B02FA03F00842BD
:109BA000F7D128782A2810D06FF02F022878A0F15A
:109BB0003001092914D80AEB8A0102EB410144F073
:109BC000020400EB010A6D1CF0E701CF5FEA000A16
:109BD00003D544F40054CAF1000A44F002046D1C99
:109BE00028782E2817D115F8010F44F004042A28EC
:109BF0000ED06FF02F022878A0F1300109290AD881
:109C000009EB890102EB410100EB01096D1CF2E750
:109C100057F8049B6D1C28786C280FD006DC4C2864
:109C200017D068280DD06A2814D104E0742810D009
:109C30007A280FD10DE044F400140AE044F48014B3
:109C400001E044F440146978814202D104F58014A3
:109C50006D1C6D1C28786E281ED00CDC632830D05B
:109C600004DC00288BD0582811D19FE0642867D0ED
:109C700069280CD164E073282DD004DC6F2872D0E1
:109C8000702804D194E075286ED078286DD0DDE975
:109C90000F129047761C4BE1C4F30250022806D005
:109CA000032809D0042801CF09D0066040E101CF84
:109CB000F117C0E900613BE101CF068038E1067091
:109CC00036E117F8040B8DF8000000208DF8010034
:109CD000EB46012003E057F804BB4FF0FF3061076B
:109CE0004FF0000102D40DE008F10101884649451A
:109CF0000FDA8045F8DB1BF808100029F4D108E0E2
:109D000008F1010188468142FADB1BF8081000299E
:109D1000F6D1DDE90F23AAEB08008146214600F0C9
:109D200031F9304400EB080604E0DDE90F121BF8BE
:109D3000010B9047B8F10108F7D221464846F2E0FE
:109D40000A21C4F302524FF0000B0891022A04D0FA
:109D500001CFC117032A09D00AE0FF1D27F007072A
:109D6000F7E8020108E02CE01EE01FE000B2C11796
:109D7000042A01D140B2C117021E71F1000206DAB5
:109D80000023D0EB030063EB01012D2202E022054A
:109D900004D52B228DF82420012203E0E20701D014
:109DA0002022F7E7904653E00A210BE0102109E05A
:109DB00010214FF0000B44F004044FF00809089103
:109DC00003E008214FF0000B0891C4F30252022A6D
:109DD00004D001CF0021032A06D006E0FF1D27F0A2
:109DE0000707F7E8020103E080B2042A00D1C0B2FD
:109DF0004FF0000822072BD52A78702A07D0DDF80B
:109E000020C08CF0100C5CEA0B0C05D00EE0402258
:109E10008DF82420012208E050EA010306D0302307
:109E20008DF824308DF8252002229046089B83F07F
:109E3000080353EA0B030BD150EA010201D1620778
:109E400006D530228DF824204FF00108A9F1010930
:109E50002A78582A04D038A20B9208AA0A920BE05A
:109E60003AA2F9E75B46089AFFF713FB0B9B9B5C52
:109E70000A9A521E0A92137050EA0102F2D10A980D
:109E8000ADEB000000F1200B600702D524F4803414
:109E900001E04FF00109D94502DDA9EB0B0000E01C
:109EA000002000EB0B0141440890AAEB010AE003FB
:109EB00006D4DDE90F232146504600F063F806443E
:109EC0004FF0000908E009A911F80900DDE90F12B7
:109ED000904709F10109761CC145F4DBE0030CD57C
:109EE000DDE90F232146504600F04CF8064404E01B
:109EF000DDE90F1230209047761C0899481E089023
:109F00000029F5DC08E00A980A990078491C0A91B2
:109F1000DDE90F129047761CBBF10001ABF1010B9C
:109F2000F1DC21465046DDE90F2300F019F8064424
:109F30006D1C21E6092801003031323334353637C3
:109F40003839616263646566000000003031323385
:109F50003435363738394142434445460000000025
:109F60002DE9F041044600251E461746880404D416
:109F700005E039462020B0476D1C641EF9D52846FF
:109F8000BDE8F0812DE9F041044600251E469046CB
:109F9000C80301D5302700E02027880404D505E058
:109FA00041463846B0476D1C641EF9D52846BDE8C9
:109FB000F0810A68531C0B601070704710B50120C7
:109FC00002F052F91821982002F081F90849A028DE
:109FD00007D008A0FFF77CFDBDE81040002002F08C
:109FE00043B90BA0FFF774FD00F05EF8F4E7000042
:109FF000B1EF01005B25735D2044657669636520E0
:10A00000466F756E64204661696C0D0A00000000A1
:10A010005B25735D2044657669636520466F756EC8
:10A020006420537563636573730D0A0010B500F007
:10A0300007F802480168491C016010BD882500200E
:10A0400070B5012002F010F90D21982002F03FF9BF
:10A0500060F307040E21982002F039F960F30F2411
:10A060000F21982002F033F960F317441021982053
:10A0700002F02DF960F31F641121982002F027F9F6
:10A0800060F307051221982002F021F960F30F25F3
:10A09000002002F0E9F80348211404804180858003
:10A0A00070BD00008C2500202DE9F0471A4D0024DA
:10A0B00015F81410FF2927D005EB4409982099F8CA
:10A0C000012002F04AF9154E05274FF47A48711C19
:10A0D000404688477F1EFAD115F81410982002F0E8
:10A0E000F6F899F8011088420BD005EB440015F8FA
:10A0F00014204378BDE8F047084909A0891DFFF7FF
:10A10000E7BC641CE4B2D3E7BDE8F04703490EA006
:10A11000891DFFF7DDBC00009225002098EF0100AB
:10A120005B25735D204572726F722E2041646472EC
:10A13000203D20253032582C2044617461203D2080
:10A14000253032580D0A00005B25735D204465768A
:10A150006963652053657475702053756363657317
:10A16000730D0A00164910B50A88A1F10C0382424A
:10A1700001D2887821E08A8A824201D9887D1CE058
:10A180005FF0000231F82240844204D301EB8204E4
:10A19000A488844202D3521C92B2F3E731F82240E1
:10A1A00001EB8201201A8A8800EB8000A21A92B289
:10A1B000800090FBF2F08978081A187010BD00003A
:10A1C0006425002040F6B831484343F63421B0FB03
:10A1D000F1F00149888070475825002030B543F6DA
:10A1E000FF7400256342052230F912100D448C42A1
:10A1F00000DD0C468B4200DA0B46521C92B20A2A52
:10A20000F2D3281BC01A032190FBF1F000B230BD3D
:10A2100030B41B494FF480600860194901200839A7
:10A220000860174A0921121F1160174A1549116069
:10A23000111D0860144A03213C3A116012490022A2
:10A2400038390A60091D0A6010490223C1F8043335
:10A25000C1F804210A4A183A10604FF0E022802326
:10A26000C2F880326024D51D85F80044C2F8003160
:10A270004860086030BC064906A0FFF729BC000012
:10A28000187500405A2500202C76004000700040D0
:10A2900023EF01005B25735D20436F6D706C657467
:10A2A000652E0D0A000000007047000070B51A4DC1
:10A2B000ACB001242C800226AE70AC216846FFF7BA
:10A2C000DDF88DF8006000208DF8020005208DF883
:10A2D0000300ADF84C40A0202290149540F6B83011
:10A2E00023908DF87C400D48299069460C4800F079
:10A2F000C9FB08B100F025F80121094800F0BFFBB7
:10A3000000224FF6FF71012077DF002801D000F016
:10A3100018F82CB070BD00000C25002021DD0100D4
:10A320006426002010B50321044800F05EFC0028DC
:10A3300003D0BDE8104000F004B810BD6426002032
:10A340007047704710B58268C368934203D001F02C
:10A35000DDFD002010BD052010BD29B112B1531E36
:10A36000134203D0092070470E207047016083809C
:10A3700000218160C1600846704710B58268C368DB
:10A380009A1A83889A4203D801F0CAFD002010BDB2
:10A39000042010BD70B5002411B18A07254601D0F4
:10A3A000072070BD094A0B465160107000EB400059
:10A3B0005570C10018469560FFF760F803F044FB44
:10A3C00010B903F009FB0446204670BDE0250020CB
:10A3D00070B50C46054601F061FD060013D10B492E
:10A3E00005EB45002246496801EBC005012100202C
:10A3F00002F022FF04200023E15CEA5C1140E154FA
:10A400005B1C8342F8D3304670BD0000E02500207D
:10A4100070B50B4D00EB400400216A6802EBC402EA
:10A42000127D0AB1084670BD012104F0D3FB00285B
:10A43000F9D16A68012102EBC402117570BD0000F8
:10A44000E02500202DE9F843314C0E46984661681E
:10A450001746814631B160782278904204D30420B7
:10A46000BDE8F8830820FBE700EB400001EBC005E6
:10A470000020287518212846FFF700F861786268E7
:10A4800001EB410102EBC101C1F8108030E03078EE
:10A490001F4900F01F081F480831406800904046DF
:10A4A00002F0B2FB58B91C4A6946404603F02CFA48
:10A4B0000028D5D116494046083102F0B7FB307864
:10A4C000C0F34110012801D0032803D1291D4046C3
:10A4D00002F0ACFB3078C0F34110022801D0032811
:10A4E00004D105F10801404602F0A0FB761C7F1E56
:10A4F000002FCCD104232A4605F10801281D02F0C3
:10A500009FFB607889F80000401C60700020A7E77E
:10A51000E025002010F00100D1C00100084B9B781D
:10A5200023B12AB120B10068037C1BB10820704719
:10A530000720704700230374417442611846704736
:10A54000E429002070B503F06BFE104800240B21B5
:10A55000047044700E4D817014206C602C706C700F
:10A56000FFF7BAF806211420FFF7D7F81420FFF7F9
:10A57000BEF80848046006211120FFF7CEF8054810
:10A58000001F0068A860002070BD0000E4290020C2
:10A59000F0250020081501402DE9FC47DFF87890F0
:10A5A00099F8023073B368B3052902D20720BDE8D9
:10A5B000FC87436933B3437C012B25D00027044635
:10A5C0000025884616468DF80050684600F0C4F80D
:10A5D00001A804F031FBC8B1012101700F494460AA
:10A5E0000968C0E90218C0E904769DF8040089F8FA
:10A5F00001009DF8000000F0D3F81420FFF782F866
:10A600002846D4E70820D2E70F46D8E704259DF86E
:10A61000000000F0C5F8F3E7E4290020041501402C
:10A620000649897839B130B1416921B100210174FD
:10A63000022104F093B8082070470000E4290020AC
:10A6400070B50A4E01460A48B578FFF77BFE04460E
:10A650004DB10020B070711C0122C81D02F08EFCAB
:10A6600008B1FFF76EFE204670BD000004260020F2
:10A67000F02A0020F0B5244E89B01F460D00044694
:10A6800072603FD0A888296882B22048FFF765FE33
:10A69000002835D1A889A96882B21C481030FFF77C
:10A6A0005CFE00282CD1202219496846FEF7CDFE19
:10A6B00060690690207C00B101208DF814008DF8AF
:10A6C0001C70607C00B10E208DF81500E0680290CF
:10A6D000A068039020680190606800900A480D4AC5
:10A6E0006946083002F02AFC002809D1B0702068C1
:10A6F000401C05D004490122491CC81D02F03EFC43
:10A7000009B0F0BD0720FBE704260020F02A002056
:10A7100024F0010041E8010010B501460C48FFF7A4
:10A720002CFE040011D10B4803F0A2FA68B90949C4
:10A7300007480C39FFF706FE38B9064901220C39E3
:10A7400001F1080002F01DFC0446204610BD000087
:10A75000002B00201026002030B5EFF3108172B6D8
:10A760000D4A9468012324B10370002900D162B618
:10A7700030BD93604FF0E023D3F88051074C254063
:10A780001560C3F88041D3F8844154605A17C3F868
:10A79000842100220270E8E7102B0020FC06FFBD98
:10A7A0000B498A68002A11D000280FD1EFF31080DE
:10A7B00072B60B684FF0E022C2F800314B68C2F865
:10A7C000043100228A60002800D162B67047000080
:10A7D000102B00202DE9F041064608680C46411C6C
:10A7E0004FF0A0474FF0010506D005FA00F1C7F879
:10A7F0000815206802F0DAFC6068411C02D00021D4
:10A8000002F0B9FC3168A069C1F82405607D217DA2
:10A8100032680843C2F86C05D4E900123068C0F809
:10A820000C15C0F81425207D012815D1A068411C05
:10A8300002D0002102F09FFCE068411C05D0854059
:10A84000C7F80855E06802F0B1FCD4E9021230689C
:10A85000C0F80825C0F81015BDE8F08170B51500E6
:10A86000044609D00020286034B1206820B1A079C6
:10A87000800703D0072070BD0E2070BD084600F091
:10A88000E9FAC0B2142804D02179814203D8042007
:10A8900070BD052070BDE288216800FB02102860B1
:10A8A000002070BD2DE9FC4700251788064615805D
:10A8B00090F82D001446894630B13A462146484664
:10A8C00000F0DCFA051E09D1B0784FF00C0A18B37D
:10A8D0002088C846001DB84202D95046BDE8FC8712
:10A8E000684679DF0028F9D12088032108F8001094
:10A8F00020881921401C80B2208008F80010208890
:10A90000401C80B2208000EB0801BDF8000004F07C
:10A910000BF9218808442080F0780222C8B12188F0
:10A9200096F9033001F1030C4846BC45D5D8425492
:10A9300021884FF0010C491C89B2218000F801C028
:10A940002188491C89B2218009F801302088401CE7
:10A9500020807068B8B1218890F9003001F1030CB3
:10A960004846BC45B9D8425421880A22491C89B2BC
:10A97000218042542188491C89B2218009F8013084
:10A980002088401C2080308950B1CDE900474B46DB
:10A990000622022106F1080004F066F9051E9DD189
:10A9A000308A50B1CDE900474B460722032106F11A
:10A9B000100004F059F9051E90D1308B50B1CDE94B
:10A9C00000474B461522142106F1180004F04CF9FB
:10A9D000051E83D1306A30B13B462246494600F01D
:10A9E00010FF051EDBD1706A30B13B462246494656
:10A9F00002F002F8051ED2D196F82C0038B13B4681
:10AA000022464946304603F093FC051EC7D13078F4
:10AA100038B13B4622464946304602F01FF8051E33
:10AA2000BDD128465AE718B504460020ADF800000D
:10AA300013466A46204600F006F8002802D0BDF80A
:10AA40000000204418BD70B588B182B1002415887B
:10AA500003E0065D641C3444A4B2A54203D8061981
:10AA600076789E4201D08C42F3D38C4201D30020F1
:10AA700070BDA11C1180005D401E80B270BD80F8C9
:10AA8000301070472DE9F0410D00044606D02CB17E
:10AA900095F87A000026012803D006E00E20BDE8D4
:10AAA000F08195F89800012829D0D5F8A000042855
:10AAB00025D0D5F89C00042821D04FF00108A670BD
:10AAC0002C2205F17801201DFEF7BFFC84F83060D0
:10AAD000D5F8A4006063D5F8A800A0634FF6FF7016
:10AAE000A4F8A80004F19400C4F8A400C4F8AA6073
:10AAF000A4F8AE6084F8B060207810B104E00720BC
:10AB0000CDE7FF2084F8540004F155011F27C4F855
:10AB10009410A4F8987004F198022846FFF7C2FE3A
:10AB20000028BCD115F13C0F0ED004F17401C4F81B
:10AB30009C10A4F8A07004F1A00205F13C00FFF7FE
:10AB4000B1FE0028ABD103E0C4F89C60A4F8A0607B
:10AB500084F85180208BA4F8480084F83C80266457
:10AB600084F8506060696064454604F13C0200214D
:10AB700004F1540072DF002891D125708FE710B5E1
:10AB80000288102A1BD0112A20D0262A1DD1007A33
:10AB90000C46012801D0022817D1A0780521401CBD
:10ABA000B0FBF1F201FB1201204600F01EF8002874
:10ABB0000BD0A16B002908D0BDE810400847C27B2C
:10ABC000012A02D18088A1F8A80010BD0C460021FE
:10ABD00084F8B2108088B4F8A8108842F5D12079A2
:10ABE0000028F2D10121DFE770472DE9F05F04462C
:10ABF00000780F4698B1A7700025C4F8AA50A4F8B1
:10AC0000AE5084F8B050A079012608B1012F09D0C8
:10AC1000E07980B1012F05D0022F03D00BE008208E
:10AC2000BDE8F09F616B21B184F8B16008208847CE
:10AC300001E084F8B15004F1AB0100200A5C0AB1D4
:10AC4000304603E0401C0628F8D300204FF00208ED
:10AC50004FF0030A4FF0040B012F06D0022F0CD047
:10AC6000032F0FD0042F15D110E0A17929B194F84A
:10AC7000241011B908B130460DE0E17911B108B1E5
:10AC8000404608E0207A08B1504604E0607A08B1F6
:10AC9000584600E02846A070616B41B1032801D0FE
:10ACA000042804D1607910B194F8B200A0B184F8FE
:10ACB000B35004F13C0018210746FEF7DFFB04F116
:10ACC0002C0084F83C60814603F054F958B194F8A4
:10ACD0002C0084F8510008E084F8B45084F8B36084
:10ACE00007208847E5E784F8516094F8240050B1C4
:10ACF000484603F03FF920B194F8280084F8520048
:10AD000001E084F8526084F85050A27804F1AA015E
:10AD100004F19409052A4DD2DFE802F065030F1B08
:10AD2000320084F83160C4F8A450C4E9101584F8E6
:10AD30003C808020A4F848003EE084F8318087F809
:10AD400000A0228ABA81C4F8A4507960E168B96091
:10AD500032E06069B860208BB8813D4684F83C6081
:10AD6000204603F02BFF40B185F8148004212046D3
:10AD700001F0DFF8F0B9052115E084F831A017E003
:10AD8000E069B860208CB8813D4684F83C6020467C
:10AD900003F014FF50B185F814800421204601F01F
:10ADA000C8F838B9062184F8311001E084F831B0D0
:10ADB000C4F8A490A07878B13A4604F15400D4F8CD
:10ADC000A41072DF00287FF42BAF94F8301094F8B1
:10ADD000540073DF0028F6D1616B11B194F8310093
:10ADE000884700201CE784F83150F5E770B504006F
:10ADF00012D001461C221448FEF727FB1248134DBF
:10AE00000560206850B17ADF002806D1206801680B
:10AE100029604068686005E00E2070BD0B487BDF4C
:10AE20000028FAD108484FF6FF711438084A20F874
:10AE3000041B0549343901600021FFF76FFB00282E
:10AE4000EBD0032070BD0000BC280020C0250020EE
:10AE500055EB010010B5044600F006F808B1204695
:10AE600010BD142010BD0000142801D3002070472D
:10AE70000146014801F097BEDC2800207CB505465C
:10AE800008880C460930904201D90C207CBD6846E8
:10AE90006DDF0028FAD121880820685420881B2102
:10AEA000401C80B2208029542088401C80B2208021
:10AEB0002844DDF801100160BDF80510818020886C
:10AEC000801D80B220809DF80010490800D001212B
:10AED00029542088401C208000207CBD38B50446C1
:10AEE0000020294D0090218828883B293FD00FDC85
:10AEF000102919D011292DD0132933D0212928D177
:10AF0000224923A0FEF7E4FDA08869468FDF1CE0FC
:10AF1000522934D056291CD11C4924A0FEF7D8FD53
:10AF2000A088132176DF10E0A288184926A0FEF73A
:10AF3000CFFDA18804222980032077DF08B1FFF725
:10AF400000FA2988284801F01DFF002801D0FFF7EA
:10AF5000F8F938BD0D4925A0FEF7BAFD4FF6FF7090
:10AF6000288038BD00231A4685217FDFEDE7074999
:10AF700023A0FEF7ADFDA088132176DFE5E70023CF
:10AF80001A461946B1DFE0E7082500200DEE010062
:10AF90005B25735D2050485920757064617465208D
:10AFA000726571756573742E0D0A00005B25735D03
:10AFB0002047415454205365727665722074696D40
:10AFC000656F75740D0A00005B25735D20436F6E1D
:10AFD0006E65637465642E2048616E646C65203D07
:10AFE0002025640D0A000000582600205B25735DB3
:10AFF00020446973636F6E6E65637465640D0A0047
:10B000005B25735D204741545420436C69656E7421
:10B010002074696D656F75740D0A00002DE9F047A5
:10B0200001883B4E40F2F3194FF6FF7510291BD0F3
:10B0300011293ED0122954D0502946D1C188F28915
:10B04000841D914241D1618902293ED186883046D2
:10B0500001F0FEFA050038D004F10C0000F0CEF942
:10B06000A8B3294630464EE0C17B878804460129B3
:10B070002BD1A846284601F0EBFA050017D02F8007
:10B0800000202872234843464A460168C5F80A1042
:10B090004068C5F80E0004F1100105F10A0001F046
:10B0A00029FB6872F08900280FD129462AE0042084
:10B0B00013E0808801F0CCFA040006D06068FFF746
:10B0C000AFFA08B103F02CF92580BDE8F087FFE75F
:10B0D0006868FFF7A5FA0028F7D0BDE8F04703F04D
:10B0E0001FB987880646384601F0B2FA0400ECD052
:10B0F0002B464A4606F1080104F10A0001F0FAFA6B
:10B10000607221463846BDE8F04700F0E7BB00001A
:10B11000BC280020C02500202DE9F04F0746858877
:10B1200002883D48012197B08346102A09D0112A90
:10B1300049D01A2A6CD1387AB1EB101F45D20122BE
:10B1400044E0354C083CA068C0430B9061680BA8F4
:10B1500001F041FD0B990CA800F034FB2C220CA946
:10B160006846FEF772F90026E946A04610E000BFE7
:10B1700009EB46005FF00004B0F804A008EB84007F
:10B180005146001D01F004FD641C1D2CF6D3761CF5
:10B190000098B042ECD8142D05D317B00420BDE8B8
:10B1A000F04FFFF7CEB82946584601F007FD294673
:10B1B00008F1040001F002FDF87B012828D01648B0
:10B1C0002946001D15E029461AE000220221B1EBB4
:10B1D000101F01D2012600E000260F49083901F1B5
:10B1E0001000041D294682B101F0E8FC36B1294661
:10B1F000204617B0BDE8F04F01F0E0BC29462046DC
:10B2000017B0BDE8F04F01F0C3BC01F0C1FCF5E799
:10B2100017B0BDE8F08F0000E0280020F0B585B041
:10B2200016460F4604001D4614D004AA194660694C
:10B23000FFF714FB00280BD1A5F57F40FF380BD09A
:10B24000049848B1007848B13088F42808D907201C
:10B2500005B0F0BD0E20FBE70520F9E70820F7E771
:10B2600000200090019002900390A088ADF80000AB
:10B2700001208DF80200CDE9026769462846AEDF5D
:10B28000E6E7000070B5334D04008EB02DCD08AE5A
:10B2900086E82D005BD0E9B30868A061214608A8C4
:10B2A00062DF002851D1207801258DF83200ADF8F9
:10B2B0003050A21C0CA92846A8DF002845D1202127
:10B2C0006846FEF7DBF80220ADF8000020788DF824
:10B2D00002008DF80C509DF80D00F426ADF80460C6
:10B2E00040F00C008DF81150ADF806508DF80D00AF
:10B2F0008DF81250608804F10C02694600F022F9C2
:10B30000002822D120216846FEF7B8F80320ADF8C6
:10B31000000000E01BE020788DF802008DF80C5052
:10B320009DF80D008DF81150ADF8046040F010004C
:10B330008DF81250ADF806508DF80D008DF81350B1
:10B340006088221D694600F0FDF80EB070BD0E2029
:10B35000FBE70000F8EF010030B587B00446002994
:10B3600025D0002C23D008462188102921D050292F
:10B3700025D057291BD10546A18840696A46FFF7A9
:10B380006DFA002813D10098007800280FD01821FA
:10B3900001A8FEF773F801208DF804000295A0883B
:10B3A000ADF80C0000980490A96901A8884707B07F
:10B3B00030BD07B02146BDE8304002F0C5BC07B043
:10B3C0002146BDE8304002F093BD000038B50D467F
:10B3D00004460346009105A205A1074802F01AFEA3
:10B3E00029462046BDE8384000F05AB80D0A000052
:10B3F000425258203A200000F0ED0100007800F0A1
:10B400000100704708B50020009002F0F1F808B183
:10B41000FEF797FF6946012001F062FF08B1FEF7D1
:10B4200090FF684601F0F2FF08B1FEF78AFF054879
:10B430006DDF08B1FEF785FF034904A0FEF748FB66
:10B4400008BD0000142500202BEE01005B25735D74
:10B4500020436F6D706C6574652E0D0A000000004E
:10B4600010B5FFF7CFFF00F0DFFD00F019FE02F08E
:10B47000A3FFFEF71BFF00F00BFABDE810400249E6
:10B4800002A0FEF725BB00003AEE01005B25735DCC
:10B4900020436F6D706C6574652E0D0A000000000E
:10B4A00013B5094901AA0B88014608480068FFF74F
:10B4B000B5FE082807D0132805D0052803D000289A
:10B4C00001D0FEF73EFF1CBD0825002010250020FE
:10B4D00005494FF0FF32082841F8202002D30844E4
:10B4E00080F848207047000064290020F0B54FF034
:10B4F000FF3512B10023082601E008230C260C4C6E
:10B5000005E000BF54F823707F1C04D05B1CB342DD
:10B51000F8D32846F0BD26185DB286F8305044F8BE
:10B520002310002AF5D1E11881F84800F1E7000066
:10B53000642900200249084490F930007047000057
:10B54000642900202DE9F0438146887891B0904627
:10B550000C4600B901208DF83E002088ADF83C0073
:10B5600000250095607C694602F056FF6E46A07C7F
:10B57000711C02F051FFE07B00289DF8020002D010
:10B5800040F0080001E020F008008DF80200217C66
:10B5900011B140F0100001E020F010008DF8020021
:10B5A000217B11B140F0010001E020F001008DF895
:10B5B0000200217D09B1022100E0012161F3420076
:10B5C0008DF802001C2102A8FDF758FF607BC10620
:10B5D00001D4800617D50E950EAFE07C791C02F0E1
:10B5E0001BFF9DF83800079720F00F00401C20F04B
:10B5F000F00010308DF838009DF83A0020F0060079
:10B60000801C8DF83A00607B8DF80800A07B8DF8D7
:10B610000900142109A8FDF731FF0FA8CDE909069B
:10B62000A088ADF83000A06820B1E088ADF82C000B
:10B63000A0680D90A06998B301950088ADF810003E
:10B64000A06901AD01A94088ADF81200A069406869
:10B6500006950390A069007B02F0DEFEA069691CDC
:10B66000407B02F0D9FEA069807A00289DF8060090
:10B6700002D040F0080001E020F008008DF806003C
:10B68000A169C97A11B140F0100001E020F010006A
:10B690008DF80600A169097A19B140F0010002E0B5
:10B6A0000DE020F001008DF80600A169897B09B149
:10B6B000022100E0012161F342008DF80600E069FB
:10B6C00000B10590434609AA02A94846AADF11B075
:10B6D000BDE8F08370B5084C050009D0103421682E
:10B6E000002907D008682060496828468847F6E79F
:10B6F0000834F4E770BD000050290020054A0121FC
:10B7000020B1012805D19170FFF7E4BF51700020EE
:10B71000FAE77047502900202DE9F05F264841687C
:10B72000F1B3DFF898B00E688146DBF80040876817
:10B730008078E11B21F07F45ED1CB0B9DFF88080F7
:10B740004FF48030C8F84403C8F804031120FDF713
:10B75000C3FF1120FDF7CBFF4FF0010AC8F800A08E
:10B760002F2002F053F889F802A0B54200D23546E6
:10B77000124BE8193C3320F07F401860DBF80010D2
:10B780005A46091B21F07F41001B20F07F40C91C55
:10B7900081420FD9106818602F2002F037F800E0BE
:10B7A00004E0BDE8F05F1120FDF7ACBFBDE8F05F3D
:10B7B00002F036BDBDE8F09FF025002004150140E1
:10B7C0000010014073B58CB00646002000900D9823
:10B7D00080B100246D4621460DA801F0E4F930B196
:10B7E000009805EB400084800098401C0090641C89
:10B7F000142CF0D32C2269463046FDF726FE0EB0FD
:10B8000070BD2DE9F04117880646B81D14460D4657
:10B81000984202D90C20BDE8F08131880722062920
:10B820000AD34FF4486C4FF6FF73614501D9994232
:10B8300002D17088062801D21046ECE7604501D994
:10B840009842F9D1994203D0984201D08142F3D86D
:10B850000520E85520881221401C80B22080295400
:10B860002088401C80B220804119308803F05CF9A8
:10B870002188084480B220804119708803F054F96F
:10B880002188084420800020C5E7FEF75ABD00004B
:10B8900000B587B01C216846FDF7F0FD00204FF48D
:10B8A0002031CDE900014FF47021029103218DF880
:10B8B0000C10ADF80E008DF81000064805900648F3
:10B8C00006906846FFF792FA002801D0FEF739FD8E
:10B8D00007B000BD2DDD01008BB8010038B54A7AF4
:10B8E0000F4B62B100220A725969002906D0012269
:10B8F0008DF80020ADF802006846884738BD0A7A06
:10B9000062B19B684C68024619462046FEF744FE29
:10B910000028F3D0BDE8384002F002BD5B68F1E7D3
:10B92000BC28002010B5334C207800285FD0622856
:10B930005BD00BDC342850D057DC302815D03128B0
:10B9400041D0322841D033284FD144E070284CD028
:10B9500006DC632849D0642847D06F2845D13FE0F2
:10B9600072283FD0732840D142E023A0FEF7B0F800
:10B970002CA0FEF7ADF820A0FEF7AAF82F4800880B
:10B98000A0F57F41FF3901D02DA100E02EA131A00B
:10B99000FEF79EF83648028836A01146FEF798F862
:10B9A0003C4801683CA0FEF793F84248B0F90430E7
:10B9B000B0F90220B0F900103FA0FEF789F846A0C8
:10B9C000FEF786F811E0002100E0FA215FF00000A8
:10B9D00002F09CFB09E0002100E0FA21FA20F7E7E1
:10B9E000042000E0032000F0D1F90020207010BDF9
:10B9F0000120F8E7542500203D3D3D3D3D3D3D3DC6
:10BA00003D3D3D3D3D3D3D3D3D3D3D3D3D3D3D3D66
:10BA10003D3D3D3D3D3D3D3D3D3D3D3D3D3D3D0D86
:10BA20000A0000002053797374656D2053746174AB
:10BA30007573090909090909090D0A00082500207B
:10BA4000436F6E6E65637400446973636F6E6E65F9
:10BA500063740000424C4520537461747573202058
:10BA6000203A2025730909090909090D0A00000077
:10BA7000822500204C696768742053656E736F726D
:10BA8000203A2025642C20256409090909090D0A9A
:10BA900000000000BC25002048616C6C2053656EDE
:10BAA000736F7220203A2025640909090909090DDC
:10BAB0000A0000008C250020416363656C205365FB
:10BAC0006E736F72203A2025642C2025642C20256B
:10BAD00064090909090D0A000D0A000001490870EE
:10BAE0007047000054250020064907A0FDF7F0FF2D
:10BAF0000B49B12008600A6802490AA0FDF7E8FF77
:10BB0000FDF71CFE50EE01005B25735D20456E7451
:10BB1000657220444655205472790D0A00000000D9
:10BB20001C0500405B25735D20526567203D202584
:10BB30003032582E0D0A000038B5044600688000E7
:10BB400003D50A490AA0FDF7C3FF2068400103D5C9
:10BB500006490EA0FDF7BCFF134869468078FEF742
:10BB600037FC002801D0FEF7ECFB38BD95EE010054
:10BB70005B25735D2041636320496E742E2044650C
:10BB80007465637465640D0A000000005B25735DD5
:10BB9000204C6967687420496E742E204465746572
:10BBA000637465640D0A00003C2500201CB51C4927
:10BBB0000120FEF7EFFB08B1FEF7C3FB9DF8000084
:10BBC000184B20F01F001D3020F0600020308DF851
:10BBD00000009DF80100012220F01F001A3020F023
:10BBE000600020308DF8010069460F48FEF72AFCFE
:10BBF00008B1FEF7A6FB0C4CA41EA078FEF708FCCB
:10BC000008B1FEF79EFB01A9A078FEF7E1FB08B1A1
:10BC1000FEF797FB054906A0FDF75AFF1CBD000083
:10BC20001C27002039BB01003E250020AAEE0100A0
:10BC30005B25735D20436F6D706C6574652E0D0A16
:10BC40000000000010B502F053FC0549C860FFF782
:10BC5000ADFFBDE81040034903A0FDF739BF000068
:10BC60003C250020BDEE01005B25735D20436F6D18
:10BC7000706C6574652E0D0A0000000070B5324CC2
:10BC80000126637803B900262F4800254FF6FF727E
:10BC900041682E48012B008806D0022B1ED0032BB2
:10BCA00026D0042B4DD135E021B101290AD002293B
:10BCB00047D10AE0904202D0132176DF34E0606879
:10BCC000401C23E0904219D03BE002F011FCA16837
:10BCD000401A0A2835D900F06FF805E011B10129A2
:10BCE0002FD101E0012011E065706560A56028E0BA
:10BCF00021B1012906D0022923D109E002F0F8FB85
:10BD0000A060DCE712480078D8B90220606018E033
:10BD100000F020F821B10129D4D0022911D108E086
:10BD20009042CCD0132176DF0028C8D0FEF709FB63
:10BD3000C5E702F0DDFBA168401A0A2801D9FFF728
:10BD4000D3FE304670BD00003C25002008250020B1
:10BD50008025002003480268034904A0FDF7B8FECF
:10BD6000FDF7ECFC1C05004068EE01005B25735DEF
:10BD7000204465766963652052657365742E205290
:10BD80006567203D20253032580D0A000022044905
:10BD90004A6048700246034903A0FDF799BE0000BF
:10BDA0003C25002075EE01005B25735D2052657116
:10BDB000203D2025640D0A002DE9F0410B490CA01F
:10BDC000FDF786FE094E3225113E4FF47A47741C6A
:10BDD0003846A0476D1EFAD102F0C8FB0B490A484D
:10BDE000C1F8000733DFBDE8F08100005BEE010021
:10BDF0005B25735D2044657669636520536C6565DA
:10BE0000702E0D0A000000000C00030074000050AA
:10BE10000E4910B50A784C780023A24212D0521C69
:10BE2000D2B20A70022A00D10B70084A0B780C3289
:10BE300052F8232002608868104420F07F40886018
:10BE4000012010BD0360002010BD0000F02500207F
:10BE50002DE9F843104D0F4680461E46914669462F
:10BE6000286800F069FE040014D01C21FDF706FBD1
:10BE700001202071C4F81490380BC4F80080C4E984
:10BE800002606946286800F078FE02F0ADF90020F3
:10BE9000BDE8F8830420FBE704F2010005494A6885
:10BEA00022B14978884203D30720704708207047A1
:10BEB00000207047E025002030B50446006887B0B8
:10BEC0000D46806800281FD018216846FDF7D6FA75
:10BED0000195A0680590207910B1012810D107E0E4
:10BEE00001208DF8000020690290E068039005E0D1
:10BEF00002208DF80000E068000302906069049061
:10BF0000206881686846884707B030BD82688388AA
:10BF10001A4003689A5C0A708168491C8160704706
:10BF2000C26883881A4003689954C168491CC1607B
:10BF3000704770B50D460446B0F89810D0F89400DC
:10BF40000122FEF770FD00B1057004F13C0204F11E
:10BF5000940104F1540072DF70BD000010B50B496C
:10BF600000220B4801F010F808B1FEF7EAF9084C7E
:10BF700008496068026808A0FDF7AAFD60680549E5
:10BF80004268BDE810400BA0FDF7A2BD14F201000D
:10BF9000342600206BEF01005B25735D2045726144
:10BFA000736520556E69742020203A2025640D0A9F
:10BFB000000000005B25735D2050726F6772616D39
:10BFC00020556E6974203A2025640D0A0000000097
:10BFD00010B50446C0B2FEF79FFB204610BD00001E
:10BFE0004068002803D0024902A0FDF771BD7047E8
:10BFF00056EF01005B25735D204572726F722077EA
:10C0000068696C6520657865637574696E67206121
:10C010006E206673746F72616765206F7065726100
:10C0200074696F6E2E0D0A000EB513A19DF80800FD
:10C0300020F00F00401C20F0F00010308DF80800B8
:10C04000052202A87CDF08B1FEF77BF900200090F2
:10C0500050210190ADF800104FF4C871ADF8040004
:10C06000ADF80210ADF8061068467ADF002801D05E
:10C07000FEF767F90EBD00004F4C4C59320000002E
:10C0800006484A8803889A4207D10A88A2F52063A5
:10C09000773B02D18988C91E41807047082500205E
:10C0A00010B50949094800F0E2FD08B1FEF749F969
:10C0B000F721064800F0CFFD002803D0BDE810406E
:10C0C000FEF73FB910BD000081C0010048260020E6
:10C0D0002DE9FC41804600200090019069464046D1
:10C0E00000F0A4FD2149404600F08EFD08B1012773
:10C0F00000E000271D4A0121002001F09DF81B4DA2
:10C1000000240C3D2CE000BF686804EB440600EB03
:10C11000C601087D18B3404600F076FDF8B16868A6
:10C1200000EBC6014046083100F06EFD38B137B172
:10C130006868694600EBC600026901A80EE06868FD
:10C1400000EBC6014046091D00F05EFD38B137B96D
:10C15000686801A900EBC600026968469047641C44
:10C1600068788442D0DBBDE8FC810000EC2500202B
:10C1700000200349C1F80007024903A0FDF7A8BC4D
:10C180001C000050D4EF01005B25735D20436F6DF0
:10C19000706C6574652E0D0A0000000070B54FF0DC
:10C1A000A040D0F810050E4CC0F3C01080F001057F
:10C1B0006068A84212D12068022803D200F1010071
:10C1C000206009E008D14FF00300A56020602A46F6
:10C1D000044905A0FDF77CFC656070BD0020EFE719
:10C1E000B4250020C3EF01005B25735D2048616C1E
:10C1F0006C205374617465203D2025640D0A000095
:10C2000010B50A2403211E2000F0ACFFFDF704F84E
:10C210001F2000F0F5FF05E01E2000F0E9FF20B12F
:10C22000FCF7FAFF641EE4B2F6D2FF2C03D10649F4
:10C2300006A0FDF74DFC1F2000F0D3FFBDE8104025
:10C240001E2000F0A1BF0000E9EE01005B25735D38
:10C25000203D3D3D3D2049324331204E414B203D64
:10C260003D3D3D200D0A000010B5012809D00021F8
:10C270001F2000F077FF0021BDE810401E2000F0D5
:10C2800071BF1F2000F080FF1E2000F07DFF1F20E7
:10C2900000F0B6FFBDE810401E2000F0B1BF10B5A1
:10C2A0001F2000F071FF1E2000F06EFF1E2000F026
:10C2B000A7FFFCF7B1FF1F2000F0A2FFFCF7ACFFC7
:10C2C0001F2000F08EFFBDE81040FCF7A5BF70B541
:10C2D0000D46044600F07AF8204600F057F8FFF7C4
:10C2E0008FFF284600F052F8FFF78AFF00F06EF843
:10C2F000641CE0B200F04AF8FFF782FF00F007F894
:10C300000446FFF7CCFF00F070F8204670BD70B512
:10C310000825002403211E2000F024FF1F2000F028
:10C3200060FF12E06006040E1F2000F069FFFCF7BA
:10C3300073FF1E2000F05CFF012801D144F00104CE
:10C340001F2000F04EFFFCF767FF6D1EEDB2E9D233
:10C350001E2000F019FF204670BD70B515460E4630
:10C36000044600F033F8204600F010F8FFF748FFCD
:10C37000304600F00BF8FFF743FF284600F006F8C0
:10C38000FFF73EFFBDE8704000F02FB870B50446DF
:10C3900008251F2000F025FF14E020064FF01E00A6
:10C3A00002D400F01EFF01E000F02AFF1F2000F081
:10C3B00027FFFCF731FF1F2000F013FFFCF72CFFD5
:10C3C0006006040E6D1EEDB2E7D270BD10B51E20E2
:10C3D00000F016FF1F2000F013FF1E2000F001FFE9
:10C3E000BDE810401F2000F0FCBE10B51E2000F07C
:10C3F000F8FE1F2000F0F5FE1F2000F001FFBDE851
:10C4000010401E2000F0FCBE10B5142403211C2097
:10C4100000F0A8FEFCF700FF1B2000F0F1FE03E097
:10C420001C2000F0E5FE20B1FCF7F6FE641EE4B22D
:10C43000F6D21B2000F0D5FEBDE810401C2000F015
:10C44000A3BE10B5012809D000211B2000F08AFEF0
:10C450000021BDE810401C2000F084BE1B2000F02D
:10C4600093FE1C2000F090FE1B2000F0C9FEBDE8EA
:10C4700010401C2000F0C4BE10B51B2000F084FE4C
:10C480001C2000F081FE1C2000F0BAFEFCF7C4FE68
:10C490001B2000F0B5FEFCF7BFFE1B2000F0A1FE44
:10C4A000BDE81040FCF7B8BE70B50D46044600F07C
:10C4B0007EF8204600F059F8FFF7A6FF284600F066
:10C4C00054F8FFF7A1FF00F081F800F070F8641C49
:10C4D000E0B200F04AF8FFF797FF00F007F80446D3
:10C4E000FFF7CAFF00F072F8204670BD70B508254E
:10C4F000002403211C2000F035FE1B2000F071FEFB
:10C5000012E06006040E1B2000F07AFEFCF784FEA9
:10C510001C2000F06DFE012801D144F001041B2015
:10C5200000F05FFEFCF778FE6D1EEDB2E9D21C2034
:10C5300000F02AFE204670BD70B515460E46044632
:10C5400000F035F8204600F010F8FFF75DFF3046A8
:10C5500000F00BF8FFF758FF284600F006F8FFF749
:10C5600053FFBDE8704000F031B870B504460825AF
:10C570001B2000F036FE16E020064FF01C0002D40F
:10C5800000F02FFE01E000F03BFEFCF745FE1B2013
:10C5900000F036FEFCF740FE1B2000F022FEFCF708
:10C5A0003BFE6006040E6D1EEDB2E5D270BD10B507
:10C5B0001B2000F025FE1C2000F022FE1C2000F0B5
:10C5C00010FEBDE810401B2000F00BBE10B51C2073
:10C5D00000F007FE1B2000F004FE1B2000F010FE00
:10C5E000BDE810401C2000F00BBE000010B501207B
:10C5F000FFF73AFE0120FFF724FFBDE81040024993
:10C6000002A0FDF765BA000009EF01005B25735D2C
:10C6100020436F6D706C6574650D0A0010B50A4992
:10C6200041600A4800F0D4FA58B901F02DF80749E2
:10C630001C238C22087404488C39001F006800F009
:10C6400068FA002010BD000008F20100C42B002091
:10C650000146034802888A4200D00020704700004B
:10C66000A828002070B50D46044600684FF4887174
:10C6700001F08FF84FF49071206801F08AF84FF4C0
:10C680009271206801F085F84FF4A271206801F0E2
:10C6900080F820681249C0F804132068690740F345
:10C6A0000730090E002806DA00F00F0000F1E02044
:10C6B00080F8141D03E000F1E02080F800142068E9
:10C6C000012140F3073000F01F0291404009800033
:10C6D00000F1E020C0F88012C0F8001170BD000029
:10C6E000100302000248007A002800D001207047A1
:10C6F000C42B0020F0B58488A518944200D82246A7
:10C70000A41AC288D6189A4200D81346D21A4B8867
:10C710000788BB420CD34088834209D88888A0424E
:10C7200006D3A84204D8C888904201D3B04201D9A8
:10C730000020F0BD0120F0BD014902A0FDF7C8B9FD
:10C7400044EF01005B25735D20436F6D706C657471
:10C75000652E0D0A000000007047000070B5012032
:10C76000FFF76FFE87215220FFF79EFE05460A2045
:10C7700000F0A0FB86215220FFF796FE04460A2017
:10C7800000F098FB052D01D1A02C0AD023462A46A3
:10C79000084909A0FDF79CF9BDE870400020FFF7AB
:10C7A00050BE23462A4603490BA0FDF791F900F03D
:10C7B0004DF8F1E786EF01005B25735D204572724D
:10C7C0006F722E204944203D20253032582C2025E0
:10C7D0003032580D0A0000005B25735D20537563ED
:10C7E000636573732E204944203D20253032582C38
:10C7F00020253032580D0A00AFF300802DE9F041BA
:10C800000120FFF71EFE8A215220FFF74DFE06464B
:10C810008B215220FFF748FE054688215220FFF762
:10C8200043FE044689215220FFF73EFE07460020C2
:10C83000FFF707FE044906EB0520088004EB0720FC
:10C840004880BDE8F08100008225002010B51D223F
:10C8500080215220FFF770FE12228521BDE8104092
:10C860005220FFF769BEF721018017214180002186
:10C8700001714171704700002DE9F047394E0027E2
:10C8800080463D46DFF8E090D6F804A057E003D09C
:10C890000446D0F81C8035E099F8002002EB4201F4
:10C8A000521CD2B289F8002009EBC10199F802307C
:10C8B000091D9A4201D189F8005048680A78044657
:10C8C000012A12D0022A02D0032A3BD108E001F04B
:10C8D00015FF00B10127257434E00574C06900E03C
:10C8E00070680028F9D170602CE0207C50BB88680B
:10C8F0006060C868A0600869E0604869A061F0787D
:10C9000000B165606268B168184B501A20F07F4032
:10C91000984202D2A168084406E0881AA16820F073
:10C920007F40814202D9081A206000E025606560DE
:10C930000120A56020742046E56101F0C1FEB8F138
:10C940000000A4D199F8001099F801008142A3D108
:10C9500017B97168514502D00120BDE8F087002069
:10C96000FBE70000F0250020E4290020FFFF7F0006
:10C9700001F0B6FF01F0D8FF00F088FC08B1FDF728
:10C98000E0FCFFF7EBFA0A2000F084FA01F030FE39
:10C9900001F06EFBFFF72AFEFFF7CEFEFDF738FC35
:10C9A000FFF750F9FFF7DAFEFDF708FBFFF7E0FBB2
:10C9B0000A2000F06FFAFEF753FDFDF7B3FC01F01B
:10C9C000C3FD0A2000F066FA054906A0FDF780F8CD
:10C9D00000F070FCFFF752F9FEF7A4FFF8E7000043
:10C9E000E4ED01005B25735D204C6F6F7020537484
:10C9F0006172740D0A00000070B5144682880E46FC
:10CA000005462088111D0144921C994201D8FE2A36
:10CA100001D90C2070BD521C32542088FF21401CCB
:10CA200080B2208031542088401C80B2208081193F
:10CA3000288802F079F82188084480B22080AA88EA
:10CA400042B1A96841B13044FCF7FFFC2088A988B5
:10CA500008442080002070BD072070BDF8B50F4647
:10CA6000017814460546012901D1687830B1208843
:10CA7000821C9A4232D8012902D006E00720F8BD74
:10CA800069780144891C994228D8181A801E86B2F8
:10CA9000ADF800602188B81C084469467DDF002895
:10CAA000EDD12978022904D06878BDF800209042A1
:10CAB00005D3BDF80000B04201D809200AE00820E3
:10CAC000012905D16978B14202D8ADF8001001E022
:10CAD000ADF80060BDF80010FE2901D90C20F8BDAA
:10CAE0002288491CB9542188491C89B22180785474
:10CAF0002088401C2080BDF80010084420800020C1
:10CB0000F8BD10B5FCF7F5FB08B1002010BD1120F1
:10CB100010BD10B531B1B2FBF3F403FB14241CB10A
:10CB2000092010BD0E2010BD016000214160816010
:10CB30008281C381084610BD70B50C460546FCF7DE
:10CB40008DFB002802D021882868084470BD10B5EC
:10CB50000A8849888A4203D1FCF7C2FB012010BD34
:10CB6000002010BD70B50C460546FCF79CFB002864
:10CB700002D061882868084470BD10B50A884988C9
:10CB80008A4203D1FCF786FB012010BD002010BDB6
:10CB900001F01F0301229A40D243490900EB8100B2
:10CBA000114600F018B84A0950F8220001F01F029F
:10CBB00001219140084000D00120704701F01F037F
:10CBC00001229A40490900EB8100114600F00EB89D
:10CBD000012100F006B808B56A46FCF7BCFB0098D6
:10CBE00008BD08B56A46FCF7A9FB08BD08B56A464A
:10CBF000FCF7A4FB009808BDC20800F00703012061
:10CC0000895C984008407047C20800F00703012083
:10CC1000895C98400840704710B5C20800F00703CF
:10CC2000885C01249C402043885410BD10B5C20884
:10CC300000F00703885C01249C402043885410BD09
:10CC400070B5002404E0055D0E5D35431555641C88
:10CC50009C42F8D370BD28B1A1F11702E12A03D399
:10CC6000072070470E20704701800020704710B5E4
:10CC700060B1C160F72120F8021B20F8021BFB21E4
:10CC800000F8021BFFF7EFFD002010BD0E2010BDC5
:10CC90007CB50C468188002933D102880025102AF2
:10CCA00006D0112A09D03A2A0BD0552A2ED129E0D4
:10CCB0000146204601F07EF828E0A01DFFF7D3FDD5
:10CCC00024E02246408934F8063F834200D81846C3
:10CCD0006080172800D217206080D06878B1607912
:10CCE00068B1184BD3E90003CDE90003ADF8021099
:10CCF0006088ADF80400D3686946104698476571AE
:10CD000025717CBD0146204601F09AF8A07A0028E2
:10CD1000F7D02846E188A5DF012680B11128F0D0A0
:10CD200000F028FD02460848084902B0401AC00831
:10CD300006EB0040BDE8704005A100F0A4BAA57262
:10CD4000E6727CBDE8EF01002CF901002CF901002E
:10CD500073645F626C655F67617474635F65786359
:10CD600068616E67655F6D74755F72657175657317
:10CD70007428292072657475726E65642025732E7F
:10CD80000000000020B10278DE2A03D0082070479E
:10CD90000E20704741800020704760B159B1027881
:10CDA000DE2A0AD009684160DE2101704FF6FF716A
:10CDB0004180002070470E207047082070477FB5E3
:10CDC000054600294DD0002D4BD008780C46DE28B2
:10CDD00047D1A8886188884202D1204601F01AFF15
:10CDE0002888012825D002283BD011283AD0512884
:10CDF00037D135F8040F6188884232D1A978A81C50
:10CE000002292ED1017A042903D0062901D005294F
:10CE100027D10021009102228DF8002001914FF4CA
:10CE2000C07202910391ADF80420007A05280FD05A
:10CE300010E0297A2046012913D1A988428891421D
:10CE40000FD10121017204B0BDE8704001F0E2BED3
:10CE5000ADF8041028886946B0DF002801D0616869
:10CE600088477FBDA88861888842FAD14FF6FF7055
:10CE700060807FBD00F180400068002800D0012064
:10CE8000704708B500F18040002101600068009003
:10CE900008BD00002DE9F041040007D0044E4FF416
:10CEA0007A47751C3846A847641EFAD1BDE8F08160
:10CEB000EAED01002DE9F041040007D0044E4FF4E3
:10CEC0007A47751C3846A847641EFAD1BDE8F08140
:10CED00080EF010070B50B4C207808B185250FE07C
:10CEE0000020A06060602061E060074800F070FCF6
:10CEF000054600F0C9FB08B900F052FC0120207083
:10CF0000284670BD50290020FDB6010038B5002527
:10CF10008DF800506846FDF71FFC074CE068401E86
:10CF2000E060E06810B900F063FCA5709DF80000B7
:10CF3000FDF736FC38BD00005029002070B50646CC
:10CF400004780C4888B0154640F82420094A08693E
:10CF5000121D42F8240020226846FCF776FA049459
:10CF60000DB1054A00E000226946301D00F080FD49
:10CF700008B070BDD025002005EA0100001D00F0BA
:10CF8000ADBD001D00F02CBE38B503001148124D98
:10CF90004FF00E04A0EB05004FEAD0004FF0010562
:10CFA00005EB004009D061B119600C6801B0A446DE
:10CFB000BDE83040114618466047084B08A200946F
:10CFC00002E0064B08A2009409A100F05EF90E20D1
:10CFD00038BD00006CF901002CF90100A4F101003A
:10CFE000705F667300000000705F61706900000090
:10CFF000257320636865636B206661696C656420D6
:10D00000696E202573282920776974682076616C01
:10D01000756520307825782E000000000448012135
:10D020004174007A08B10020704701207047000069
:10D03000C42B0020012801D0032808D10449002274
:10D0400001284A7400D00020087401F07DB87047B0
:10D05000C42B002070B50246022801D0032A45D116
:10D06000234C207A002841D0012833D0022831D126
:10D0700020480023022A006802D0032A2AD11BE09C
:10D08000E360017911B1012924D10DE0D0E90565F2
:10D09000711B4FF48056B14200D33146294481615F
:10D0A0004569A9420ED015E00169491C0161426938
:10D0B00091420FD1237213E0E168491CE160082915
:10D0C00008D9E3602372022A0AD00D21FEF7F4FE8C
:10D0D00001F030F8607C28B1BDE8704000F0DABAA9
:10D0E0000021F3E7BDE8704001F02EB870BD0000EC
:10D0F000C42B00202026002070B541EA4201DDE962
:10D1000004564FF0A04441EA830141EA052104EBB3
:10D11000800041EA0641C0F8001770BD70B541EAD1
:10D120004201DDE904564FF0A04441EA830141EA9F
:10D13000052104EB800041EA0641C0F8001770BDEC
:10D1400070B541EA4201DDE904564FF0A04441EADE
:10D15000830141EA052104EB800041EA0641C0F861
:10D16000001770BD1CB500220B46009211460192BB
:10D17000FFF7C2FF1CBD1CB500220B4600921146F2
:10D180000192FFF7DDFF1CBD1CB5002100910B468D
:10D19000012201911146FFF7AFFF1CBD4FF0A042E5
:10D1A00002EB80000321C0F8001770471CB5002176
:10D1B00000910B46012201911146FFF7C1FF1CBDF2
:10D1C0004FF0A04202EB8000D0F8002722F440325A
:10D1D000C0F80027D0F8002742EA0141C0F8001744
:10D1E00070474FF0A04201218140C2F80C157047F2
:10D1F0004FF0A041D1F81015C14001F00100704777
:10D200004FF0A04201218140C2F80815704700008C
:10D2100018B5084B6C4601441B68009306E000BF3C
:10D2200054F82030D3F81035401C08C28142F7D89A
:10D2300018BD000008F0010018B5084B6C46014409
:10D240009B68009306E000BF54F82030D3F81035F7
:10D25000401C08C28142F7D818BD000010F0010040
:10D26000034908B50844002101600068009008BD2A
:10D270000060004002494058012800D0002070475B
:10D28000006000407047704770477047064910B50E
:10D2900000204870091D0860BFF35F8F03490448F0
:10D2A00000F024FA002010BD182600205CF00100D8
:10D2B0001C2B002010B500F0E7F908B141DF10BDCC
:10D2C00020BF40BF20BF10BDFDF73BB820B10349D0
:10D2D00009680160002070470E207047ACF2010021
:10D2E0002DE9FE4307460E460846FFF7EFFF0028EC
:10D2F00079D100250095019506208DF800704FF03A
:10D300000108ADF8040002958DF8028069462020DE
:10D31000326869DF3549364A891AC908012202EBA9
:10D32000014430B100F026FA024620463149FFF7A9
:10D33000AAFF0095019502958DF80180694640206D
:10D34000326869DF30B100F015FA024620462A49FA
:10D35000FFF799FF00958DF80070F720ADF80200F7
:10D360000195029569462320326869DF30B100F0EB
:10D3700001FA024620462149FFF785FF0095022069
:10D380008DF800000195029569460120326869DF39
:10D3900030B100F0EFF9024620461949FFF773FF5C
:10D3A0004FF4B0600090019502956946A120326863
:10D3B00069DF30B100F0DEF9024620461149FFF77F
:10D3C00062FF0095019502958DF800506946A020F6
:10D3D000326869DF30B100F0CDF9024620460A49D3
:10D3E000FFF751FF0020BDE8FE8300007CF901003B
:10D3F0002CF90100B8F7010000F801004CF8010019
:10D4000018F7010064F70100C4F601002DE9F041AE
:10D410000546076860DF804619491A482A68081AD5
:10D42000C608BA4219D9022000EB064416A12046CC
:10D43000FFF728FF20463A461FA12B68FFF724FF7D
:10D440004FF08050D0F80C012968800200F10050A4
:10D45000421A204625A1FFF716FFB8F100004FF051
:10D4600001040AD000F086F9024604EB06402AA126
:10D47000FFF709FF4046BDE8F0812F480470F9E747
:10D480007CF901002CF90100496E737566666963C9
:10D4900069656E742052414D20616C6C6F636174DC
:10D4A000656420666F722074686520536F667444EB
:10D4B00065766963652E00004368616E6765207458
:10D4C00068652052414D207374617274206C6F63E3
:10D4D0006174696F6E2066726F6D203078257820D8
:10D4E000746F20307825782E000000004D61786937
:10D4F0006D756D2052414D2073697A6520666F729B
:10D50000206170706C69636174696F6E206973204B
:10D51000307825782E00000073645F626C655F656B
:10D520006E61626C6528292072657475726E65641F
:10D530002025732E000000002B26002030B5154852
:10D54000ADF5017D0078002821D04FF4FA7500BFB9
:10D55000ADF8005280A9684661DF38B1052816D0C1
:10D560000DF5017DBDE83040FCF7EBBE6C460A4985
:10D570007DA800F0BBF806E0D0E9002120469047E6
:10D580007DA800F0CAF87F980028E1D0F4E70DF5F7
:10D59000017D30BD2B260020B0F20100F8B5134C00
:10D5A0002078C0B10120A07000F08CFE112814D0AA
:10D5B000022000F09FFE00258DF800506846FDF720
:10D5C000CBF811DF064625709DF80000FDF7E8F85E
:10D5D0002EB13046F8BD0820F8BD0020F8BDA5707A
:10D5E00000F03EFF032000F085FEF6E7282600202D
:10D5F0007CB5194C207808B108207CBD0120A070B2
:10D60000002000F05FFE112819D0002000F072FE0B
:10D6100012480026006801908DF800606846FDF70A
:10D620009BF80F4901A810DF05000AD000202070E8
:10D630009DF80000FDF7B4F82DB128467CBD002010
:10D640007CBD0120F3E7A670667000F025FF012085
:10D6500000F050FEF3E700002826002044F201000D
:10D6600041A301000EB50749684600F03FF805E008
:10D67000D0E900108847684600F04FF8029800286B
:10D68000F6D10EBD60F2010001480078704700003D
:10D69000282600200548817819B1007818B1FFF7D5
:10D6A0007DBF08207047FFF7A3BF00002826002099
:10D6B0001FB568464BDF30B1052814D004B0BDE873
:10D6C0001040FCF73EBE084901A800F00FF806E044
:10D6D000D0E900210098904701A800F01EF80398B7
:10D6E0000028E6D0F4E71FBDCCF201000160096814
:10D6F0004160AFF3008010B5D0E900215368994232
:10D7000001D1002104E0D1E90034A34202D019463E
:10D71000816010BD08314160F0E7816800290BD0BD
:10D72000026892680A44826041684B689A4203D159
:10D7300008314160FFF7DFBF704700000C4A10B5A9
:10D7400002F594730EE0991AC91001EBD1714910DA
:10D7500002EBC1010C68844201D90B4602E005D2FC
:10D7600001F108029A42EED3002010BD486810BDB6
:10D770007CF0010000B5FFF7E1FF002800D101486F
:10D7800000BD000068F001004058002800D00120D2
:10D79000704708B5002242504058009008BD000074
:10D7A00009480068012110F0010F08D14FF0E02076
:10D7B000C02280F80024C0F88012C0F8001103498C
:10D7C000012008607047000000E100E018050040FB
:10D7D0000649024600200B790BB1852070470A608C
:10D7E00001220A7100224A7170470000D8250020EA
:10D7F00004490120086004480168C1F30041002980
:10D80000FAD170470C00004018040040002802D0F4
:10D8100001498001084770471DF0010010B504461A
:10D8200000F0E0FB28B12046BDE810400021FFF7E2
:10D83000C7BC204600F0E2FB00280FD02046FDF7D1
:10D8400079FE074A02EB8001D1F8103523F001037D
:10D85000C1F8103501218140C2F8081310BD000045
:10D86000006000402DE9F0418846054600F0BAFB13
:10D87000234E002828461AD0FDF75CFE304490F86D
:10D8800048008009032802D001280ED007E04FF09D
:10D89000A040D0F81005E84010F0010F05D003219A
:10D8A0002846BDE8F041FFF78BBC0221F8E700F005
:10D8B000A5FB002822D02846FDF73CFE04464FF485
:10D8C000807000EB84000F4F81B207EB8400D0F82A
:10D8D000102542F00102C0F810250846FFF7C0FCF1
:10D8E000B8F1000F0AD02846FDF724FE56F82000B4
:10D8F000002803D00120A040C7F80403BDE8F08150
:10D9000064290020006000402DE9FC41DFF8BC8064
:10D91000044608EB0400002790F930001346C017B6
:10D920000E46401C01D008274CE0B0781946C0F3E1
:10D9300040022046FDF7DAFD0546401C41D0B07894
:10D94000410719D4C0070AD04FF0A04000EB840172
:10D95000D1F8000720F00200C1F8000707E000211D
:10D960007378204600910A460191FFF7D7FB1749CB
:10D9700020465431FFF750F9B078800718D5144885
:10D98000317800EB8500D0F81025124B1A40C0F812
:10D9900010254FF4F8524FF4403302EA042203EA10
:10D9A00001410A43D0F810150A43C0F8102509E0D8
:10D9B00008EB0500327810F8481F41EA8211017027
:10D9C00000E004273846BDE8FC81000064290020FF
:10D9D00000600040FFE0FCFF70B5184D95F858005E
:10D9E00008B1082070BD0020411E2A18401CC0B29A
:10D9F00082F830102028F8D300242046FDF768FD77
:10DA0000641CE4B20C2CF8D300240D49C0206C65D2
:10DA100081F8000401264020891FC1F88002C1F866
:10DA200000014FF4BE70FFF71BFC0649F007C1F878
:10DA3000040385F85860204670BD0000642900206A
:10DA400006E000E000600040034890F8580000281D
:10DA500000D0012070470000642900200121B1EBB3
:10DA6000507F01D10120704700207047002070478F
:10DA70002DE9F0410546164600790F46154A00EBA0
:10DA8000C00102EB810494F8201011B10820BDE818
:10DA9000F081114951F820102868FFF7E7FF08B11D
:10DAA0001120F4E739462846FCF794FE6660386991
:10DAB00020601EB1397F2846FEF7D4FD2868082172
:10DAC000C0F800150020A061E0610121606184F8C8
:10DAD0002010DCE7C02900200CF001002DE9F05FE8
:10DAE000044600790E4600EBC001DFF8F0A01746AF
:10DAF0000AEB81053046FFF7B1FFB0B168684FF01F
:10DB000000084FF4047910B12168C1F80893A8699E
:10DB10004FF0000B80B1E86948B1686810B1206827
:10DB2000C0F804931120BDE8F09F1020FBE7EF61DF
:10DB30004FF001082E6102E0EE60C5E9067B00258A
:10DB40004FF488712068FFF724FE4FF4A27120681B
:10DB5000FFF71FFE2068C0F83465C0F838752068EC
:10DB6000B8F1000F12D0D0F8001241F02001C0F837
:10DB700000122079D04600EBC0010AEB810040681A
:10DB800038B12068C0F804932846CCE70121016031
:10DB9000EFE74FF4887A4FF4A27951462068FFF7F7
:10DBA000F3FD074649462068FFF7EEFD06464FF4B1
:10DBB00092712068FFF7E8FD014647EA0600084336
:10DBC000EBD0227902EBC20308EB8302C2F818B053
:10DBD00001B10325002ED7D00F25D5E7C02900209D
:10DBE0002DE9F04704460E460079204900EBC000BD
:10DBF00001EB800517463046FFF730FF30B1204675
:10DC000000F036F820B11120BDE8F0871020FBE7C6
:10DC10006F61AE604FF49076002731462068FFF7C1
:10DC2000B8FD4FF4AC7841462068FFF7B2FD20689C
:10DC3000AA686969C0F84425C0F848152068012120
:10DC40008160686878B9B14649462068FFF79CFD55
:10DC5000064641462068FFF797FD0643F4D000B121
:10DC60000F27002068613846CEE70000C029002059
:10DC70000079054900EBC00001EB800040690028F5
:10DC800000D0012070470000C0290020017849B170
:10DC900001290BD002290CD003290DD1074908A076
:10DCA000FBF716BF818A0069FDF790BB03490EA000
:10DCB000F6E7024910A0F3E770470000FCED010011
:10DCC0005B25735D204E6F74696669636174696F6B
:10DCD0006E20686173206265656E2064697361629D
:10DCE0006C65640D0A0000005B25735D205478208C
:10DCF00052656164790D0A005B25735D204E6F7477
:10DD0000696669636174696F6E206861732062651A
:10DD1000656E20656E61626C65640D0A000000002E
:10DD2000002801D1FCF7FEBA7047000000780028F7
:10DD300007D104483B21008876DF002801D0FCF79A
:10DD400000BB704708250020F0B58BB00026019677
:10DD50000D4604468988406901AAFCF77FFD0AA8A0
:10DD6000CDE908600227ADF82070ADF82260218A65
:10DD7000A88808AAADDF002819D1A069002816D00C
:10DD80000998FDF73BFB002811D0019E0EB1012040
:10DD90003070182102A8FBF771FB8DF8087003940E
:10DDA000A888ADF810000596A16902A888470BB0B5
:10DDB000F0BD000070B502468888C97B00EB4003C7
:10DDC00002EB4304A41D012901D11188218021887F
:10DDD0006288914213D9A5DF012578B111280FD0AF
:10DDE000FFF7C8FC024607480749401AC00805EB80
:10DDF0000040BDE8704005A1FFF745BA657170BDF0
:10DE0000257170BD2CF901002CF9010073645F626B
:10DE10006C655F67617474635F65786368616E6782
:10DE2000655F6D74755F72657175657374282920FF
:10DE300072657475726E65642025732E0000000093
:10DE40007CB506468D88C88805EB450106EB410484
:10DE5000A41D172800D217202188814200D8084627
:10DE600060800020207121882846B5DF60B1FFF76F
:10DE700081FC02460F481049401AC008012101EBFD
:10DE800000400EA1FFF7FFF96079002810D1F0687B
:10DE900000280DD01549D1E90201CDE90001ADF806
:10DEA00002506088ADF80400F26869463046904739
:10DEB0007CBD00002CF901002CF9010073645F6245
:10DEC0006C655F67617474735F65786368616E67C2
:10DED000655F6D74755F7265706C79282920726555
:10DEE0007475726E65642025732E0000E8EF0100E2
:10DEF000F0B587B00C4605468E1D8988406906AA94
:10DF0000FCF7ACFC18216846FBF7B8FA0195A0882D
:10DF1000069AADF80800039231882B89002704F196
:10DF20001200994202D17389022B0DD0AA89914225
:10DF30001ED1A96900291BD08DF80070049070894A
:10DF4000ADF81400A96911E0002A11D0FDF756FAC6
:10DF500020B1069901200870022002E0069807709F
:10DF600003208DF80000A969002901D06846884780
:10DF700007B0F0BD0068012803D0022801D00020BE
:10DF800070470120704700002DE9F0410E4607461A
:10DF90000024134D0DE000BF696804EB440001EB61
:10DFA000C001087D20B13846FEF72EFE002815D1AD
:10DFB000641C68788442EFD35EB1094A01210C32B7
:10DFC0000020FFF739F93846BDE8F0410121FFF79D
:10DFD00049BC3846BDE8F041FFF720BCBDE8F08100
:10DFE000E02500200449084490F93000082801DBAE
:10DFF000012070470020704764290020044908442C
:10E0000090F93000082801D20120704700207047A5
:10E01000642900202DE9F041069F1E4615460C4656
:10E0200018B101460DA0FBF753FD1CB121460DA010
:10E03000FBF74EFD002405E0315D0BA0FBF748FD2A
:10E04000641CA4B2BC42F7D3002D05D02946BDE81C
:10E05000F04104A0FBF73CBDBDE8F0815B25735D9A
:10E0600020000000257300002530325820000000F9
:10E0700010B50020FFF792F84FF0A0440120C4F83B
:10E080000C0504F20C54FFF789F8022020601749B0
:10E090000C2008600D20091D08601449002060391B
:10E0A0000860091D0860114A0421543A11600F4BA1
:10E0B0004FF47A72583B1A600C4A4C3A10600B4B82
:10E0C0000222503B1A60094B094A403B1A601A1D54
:10E0D0001160111D0860091D086006498860BDE8CF
:10E0E0001040054905A0FBF7F3BC000060C50140E6
:10E0F0007C25002000C001404DEF01005B25735DD1
:10E1000020436F6D706C6574650D0A00C0F57A72FE
:10E110000548C1F57A7102804180044901200860F8
:10E1200003498860704700007C25002000C501403D
:10E1300000C00140034802490068FEF708BD000026
:10E140002426002004F201002DE9F041234C002593
:10E15000234E207A012730B92248311D0068FEF78E
:10E1600001FD306038B1022020723168087928B191
:10E1700001281ED116E06560BDE8F081D1E90503F4
:10E18000C01A4FF48052904200D31046B7EB900F64
:10E1900001D2820800E001220869C96818441944C4
:10E1A00029DF03E0D1E90301084428DF58B1112831
:10E1B00012D003213068FDF77FFE25726560BDE84F
:10E1C000F041FFF7B7BF207C0028D5D1BDE8F04172
:10E1D00000210220FEF73EBF2772CDE7C42B0020AE
:10E1E0002026002004F2010010B5074C201DFEF788
:10E1F000EFFC002806D1607C002803D1BDE8104068
:10E20000FFF7A2BF10BD0000C42B002010B51046C0
:10E210001A46FBF71AF9002010BD084670470000A7
:10E2200070B5012670044FF0E0210025C1F880018F
:10E23000084C4010C4F84803C4F8080366602F2057
:10E24000FFF7E4FAA660044C2F20A560FFF7DEFA82
:10E25000A57070BD00100140F02500201FB50123FE
:10E260008DF800308DF808100192D0E90012684650
:10E2700090471FBD38B50021012548B101280CD0B9
:10E28000032809D1FFF78CFABDE83840FEF73EBEFF
:10E290004FF0E020C0F8805138BD8DF8001068467E
:10E2A000FCF75AFA064C207808B9FEF713FEE0682E
:10E2B000401CE060A5709DF80000FCF771FA38BDC5
:10E2C000502900203EB5044609496846FFF70EFA7A
:10E2D00008E000BFD0E900212046904730B16846F1
:10E2E000FFF71BFA02980028F4D13EBD11203EBD75
:10E2F00048F201003EB5044608496846FFF7F6F9C2
:10E3000007E000BFD0E90021204690476846FFF7AC
:10E3100004FA02980028F5D13EBD000054F2010035
:10E3200002498969002900D008477047BC280020AD
:10E330002DE9F0410746806A14468846C8B3002597
:10E3400031E000BFB96A05EB450001EB8006B088FB
:10E35000801CFE2802D90C20BDE8F0812288401CD8
:10E3600008F8020020881622401C80B2208008F89D
:10E3700000202088401C80B2208000EB08013088FB
:10E3800000F0D2FB2188084480B22080B28842B1DC
:10E39000B16871B14044FBF758F82088B18808444F
:10E3A00020806D1CEDB297F82C00A842CAD800203E
:10E3B000D2E7FFE70720CFE71CB50D48019001A980
:10E3C0000C48FEF7EAFC08B1FBF7BBFF0A480090D7
:10E3D00069460A48FCF756FF08B1FBF7B2FF074849
:10E3E000A0F114018860064906A0FBF771FB1CBD73
:10E3F000C9D20100582600208DDC01001C25002018
:10E400001DEE01005B25735D20436F6D706C6574BC
:10E41000652E0D0A000000000A78062822F0FF028F
:10E420000A7010D2DFE800F0030507090B0D002089
:10E4300008E0112006E0212004E0312002E0122053
:10E4400000E0222008707047002805D10349012010
:10E4500048700020FDF73EB97047000050290020A9
:10E4600010B51620FBF768FB48B10A4882684FF4E4
:10E47000800152B1016821F48001016010BDBDE846
:10E48000104042F20100FBF75CBF4FF0E020C0F803
:10E49000801110BD102B002010B51620FBF74CFB8F
:10E4A000A0B1114890F800044009082811D20121B8
:10E4B000814011F0EC0F0CD00C4882684FF48001C1
:10E4C0006AB1016841F48001016010BD42F20100AF
:10E4D00001E042F20200BDE81040FBF732BF4FF00E
:10E4E000E020C0F8001110BD16E000E0102B002065
:10E4F00001480068704700004C25002010B5FBF76C
:10E50000D3FEFEF729F9FDF749FEFBF78FFD0B4C13
:10E510000A212068B0FBF1F201FB120048B900F0BB
:10E5200033F8084906480860FEF766F96068401C41
:10E5300060602068401C206010BD00004C25002059
:10E540003546526E00060140074810B5002240F6DD
:10E55000CD410068FCF720F8002803D0BDE810404A
:10E56000FBF7EFBE10BD0000CCEE0100054810B572
:10E570000068FCF755F8002803D0BDE81040FBF711
:10E58000E0BE10BDCCEE010070B5114C4FF46161DE
:10E590006068B0FBF1F20FA11048FBF7A9FA6068C0
:10E5A0003C25B0FBF5F0B0FBF5F105FB11020B4883
:10E5B0000BA1401DFBF79CFA6068B0FBF5F105FB71
:10E5C0001102BDE87040054807A10830FBF790BA7A
:10E5D0004C250020253034643A00000054270020E8
:10E5E000253032643A00000025303264000000001B
:10E5F00010B5FBF7A7FF08B1FBF7A3FE094A0121FD
:10E600000948FBF78BFF08B1FBF79BFE4FF49670B0
:10E6100000F092FB0449BDE81040123103A0FBF763
:10E6200057BA0000FDE40100CCEE01005B25735DEC
:10E6300020436F6D706C6574652E0D0A000000003C
:10E640002DE9F84F1D4C00256846D4E901A6FDF7D9
:10E65000DFFB002738B30023009A61681CE0D1F883
:10E6600000C00846944503D9ACEB02020A6015E0ED
:10E67000A2EB0C0263440760D0F80CC0C16981466C
:10E68000BCF1000F08D006EB030828F07F48C0E972
:10E69000018CC9F81C5005460029E0D1284661606C
:10E6A000FEF7EAF803E02846FEF7E6F810B1504618
:10E6B000FDF732F8E770BDE8F88F0000F025002084
:10E6C0000D4B10B5596831B102680C68A24204D8EC
:10E6D000A21A0A60C161586010BD0B4603E00B46E8
:10E6E000C969121B21B10C689442F8D3A41A0C60BA
:10E6F0000260C161D86110BDF02500202DE9F04114
:10E70000144E77683D462C4603E0844204D02546EB
:10E71000E469002CF9D11BE0D4B1A5420BD1F86912
:10E72000706040B90C49012088600021B160F07030
:10E730002F20FFF76BF82168E069E86110B10268EB
:10E74000114401607068874202D00120BDE8F08169
:10E750000020FBE7F0250020001001407CB50646B4
:10E7600000240D468DF800406846FBF7F5FF01A830
:10E7700000F062FA70B10570094946609DF8040026
:10E7800048709DF80000FCF70BF81420FAF7BAFF68
:10E7900020467CBD04249DF80000FCF701F8F7E753
:10E7A000E42900202DE9F041194D6C68002C2CD093
:10E7B000184800270068A968B846401A20F07F462C
:10E7C0002068B0420CD82146361A0744E469087C18
:10E7D00020B181F81080886949698847002CEFD101
:10E7E00029786878814206D1401CC0B2687002283E
:10E7F00001D185F80180064869780C3040F8217015
:10E80000BDE8F0411420FAF77DBFBDE8F0810000BB
:10E81000F02500200415014008B5017839B101291F
:10E8200001D0022902D14068FBF78BFD08BD684684
:10E83000FBF706FF9DF80000FDF750F908BD00004A
:10E840007CB50178244D81B301290BD002292BD14D
:10E850008DF80010C068691C01900122C81DFEF7E8
:10E860008DFB2EE0406801781C48FBF786FD1B4CB1
:10E87000012618B18DF80060019006E0A068E168FB
:10E88000814205D000208DF80000696868468847FD
:10E89000A068E168081AA188884207D80E490122B9
:10E8A000491CC81DFEF76AFB7CBD01E0AE70FBE7AA
:10E8B0000A4809491030FBF745FD30B103208DF8B7
:10E8C0000000696868468847EEE70349012201F1C4
:10E8D0000800FEF756FBE7E704260020F02A002098
:10E8E00000B58BB018220D496846FAF7AEFD0C480A
:10E8F0000690102007900A480723103008904FF424
:10E9000080700990074A06A96846FBF7B3FE002805
:10E9100001D0FBF716FD0BB000BD00002CEF01008D
:10E920007827002019E8010010B50EA0FBF7D0F8F9
:10E930000DA0FBF7CDF817A0FBF7CAF81DA11FA08B
:10E94000FBF7C6F821A124A0FBF7C2F826A129A055
:10E95000FBF7BEF804A0FBF7BBF8BDE8104032207F
:10E96000FEF798BA0D0A00003D3D3D3D3D3D3D3D61
:10E970003D3D3D3D3D3D3D3D3D3D3D3D3D3D3D3DC7
:10E980003D3D3D3D3D3D3D3D3D3D3D3D3D3D3D0DE7
:10E990000A000000204D4F44454C2020203A204CD6
:10E9A00075506C65202D204F4C4C593209090909CE
:10E9B0000D0A0000302E312E320000002056455244
:10E9C00053494F4E203A2025730D0A004E6F762092
:10E9D0003130203230323100204441544520202053
:10E9E000203A2025730D0A0031333A31393A333059
:10E9F000000000002054494D45202020203A2025C9
:10EA0000730D0A001FB50A4601788DF800104168A1
:10EA10000191017A8DF80810C0680390044850F8FD
:10EA20002210001F50F82220684690471FBD0000AA
:10EA3000D42500202DE9FF410C464FF4927705467E
:10EA40003946FEF7A1FE0026C0B139462846FEF73A
:10EA5000A0FE02208DF80000D5F88004C5F88004DF
:10EA60000390D5F83C058DF80800E0680190A66198
:10EA7000E661D4E900126846904723E04FF48877B6
:10EA800039462846FEF780FEE0B139462846FEF7B3
:10EA900080FED5F83C15A069884213D1E06960B1C9
:10EAA000E268D5F8000220F02000C5F80002E06915
:10EAB000A0612069E661E06001E0A661E2682046AD
:10EAC000FFF7CCFB4FF4A27739462846FEF75CFEF1
:10EAD00060B139462846FEF75CFEA06930B1A661F8
